:020000040800F2
:10000000B01F0520093A04082D3904082F390408C7
:100010003139040833390408353904080000000078
:10002000000000000000000000000000D5220308CE
:100030003739040800000000792203083939040820
:10004000453A0408493A04084D3A0408513A04086C
:10005000553A0408593A0408493904085D3A040835
:10006000613A0408653A0408693A04086D3A0408DC
:10007000713A0408753A0408793A04087D3A04088C
:10008000813A0408853A0408893A04088D3A04083C
:10009000913A0408953A0408993A04089D3A0408EC
:1000A000A13A0408A53A0408A93A0408AD3A04089C
:1000B000B13A0408B53A0408B93A0408BD3A04084C
:1000C000C13A0408C53A0408C93A0408CD3A0408FC
:1000D000D13A0408D53A0408D93A0408DD3A0408AC
:1000E000E13A0408E53A0408E93A0408ED3A04085C
:1000F000F13A0408F53A0408F93A0408FD3A04080C
:10010000013B0408053B0408093B04080D3B0408B7
:10011000113B0408153B0408E73C0308193B04089D
:100120001D3B0408213B0408253B0408293B040827
:100130002D3B04083D390408313B0408353B0408D5
:10014000393B04083D3B0408413B0408453B040897
:10015000493B04084D3B0408513B0408553B040847
:10016000593B04085D3B0408613B0408653B0408F7
:10017000693B04086D3B0408713B04080000000063
:10018000753B0408793B04087D3B0408813B040867
:10019000853B0408893B04088D3B0408913B040817
:1001A000953B0408993B04089D3B0408A13B0408C7
:1001B000A53B0408A93B0408AD3B0408B13B040877
:1001C000B53B0408B93B0408BD3B0408C13B040827
:1001D000C53B0408C93B0408CD3B0408D13B0408D7
:1001E000D53B0408D93B0408DD3B0408E13B040887
:1001F000E53B0408E93B0408003CFD00024F66664D
:100200008100DA0000018100DC00F8FFDC00FAFF69
:100210008100D1001F01040000011A0320021A030B
:1002200020011A0320011A0320011A0320011A03D6
:1002300020E8190320E0001F02040101500C0520F2
:10024000A00C0520500C0520500C0520500C05205A
:10025000411A0320281A0320E0000008FD000007CF
:10026000FD000006FD000005FD000004F900052B5F
:10027000C000002CC0FA000006FD000007F90001D4
:100280000304E600056E1900008813FD000002FD5E
:10029000000004FD000008FD000010FD0003200028
:1002A0000020FC000624024000240240FC00030160
:1002B000031C06F800FCAAFC0004C911000001FDA3
:1002C0000004931A000001FD0004D103000001FDA9
:1002D0000009A1630208875E020800C0FA0000015D
:0C02E000FB000402400024F4FA0000C0FF
:020000040801F1
:100000000846704700281CBF0068002801D1002066
:10001000704790F901007047816B00291CBFD1F82F
:100020004011002901D0086870470068816C0029E0
:10003000F9D100207047002918BF03F08DBC70472C
:1000400030B583B00446206D0D4680B10FF220001C
:10005000019500905223DFF86C2D00F0C5FBE06C99
:10006000236D2A46A90803B0BDE83040184737BDC4
:100070007365745F74696D657220746F20256420E8
:100080006D7300002DE9F04FB3B006460C461546DF
:100090009946684603F091FC304603F075FC060073
:1000A00008BFDFF8240D6BD003F0AAFD0746DDF88A
:1000B000F4A0484603F0ACFDC0195044812828BF85
:1000C000DFF8080D5CD2484603F0A2FD834613A872
:1000D00000EB07085A464946404603F0C1FD3C99EB
:1000E000524608EB0B000AEB0B0903F0B9FD0122A5
:1000F0003146684603F081FC002841D12A4621465A
:100100006846002403F0C8FC4A46414600F040F827
:1001100000F039F83E9D3F9E09E003AB00EB040C74
:100120001B5C401C05F80C308842F6D31446B442E0
:1001300068461AD203F036FD09EB070200F027F8F3
:1001400003A900F021F8684603F02CFD3A4600F0C0
:100150001EF800F018F83A1996423ABFB6FBF7F0CD
:1001600007FB106139460020DEE703F02BFC8021FD
:1001700013A8FFF760FF402103A8FFF75CFF0020F2
:1001800033B0BDE8F08F13A9684603F0E2BC13A9B1
:10019000684603F0CEBC1FB500F00AF8062003E065
:1001A0001FB500F005F80720FFF76CFF04B010BD85
:1001B000089C00930394079C134602940A46069CED
:1001C0000146019470472DE9F04FE5B00446606B9D
:1001D000DFF8F0AB0590A56CA06B40F2F51304902E
:1001E0000FF2604000F081FF2868DFF8E06B90F9C3
:1001F000080003F075FD5FEA000B286807D190F94D
:10020000080040F2FB1301900FF248400DE090F916
:10021000090003F0B9FB079058B9286840F203239E
:1002200090F9090001900FF24C4000F058FF304661
:1002300002E26069DFF8908BDFF8F89D032811D1A6
:1002400004984FF427714618286890F90900072888
:100250000DD1DFF8E40DB0600FF21D603060DFF803
:10026000DC0D0CE0CDF8009040F232239EE1DFF887
:10027000D00DB0600FF285503060DFF8C80D7060AF
:1002800004984FF42B71084403900498D0F830037D
:10029000002868D104984FF43B7140F24323524642
:1002A000084403210690F0680290069801900FF22E
:1002B000E83000F02EFEA06BD0F84403012838D1BE
:1002C0000FF2E83040F24B2300F092FAA26B08A93B
:1002D0002046D2F89C2290476069032808D1A06C80
:1002E000006890F90900072814BF2027302700E094
:1002F0002427029708A801900FF2D03000904FF405
:1003000018735246032100F049FC302008AB0290DC
:1003100005980FF2C8322C3001900097F1680698CA
:10032000D6F808C0E047070018D001974FF41A73B9
:100330004AE03020039B029005980FF2FC322C30EB
:10034000019040200090F1680698D6F808C0E04778
:10035000070003D0019740F2752335E0069842214B
:10036000FFF769FE05E00FF28C304FF41F7300F0C9
:100370003FFA0399402254A803F082FC03982022FC
:100380005CA903F07DFC04984FF43373202254A938
:10039000184403F075FC402154A8FFF74CFE4FF4BD
:1003A0008070039B029014A8019040200090059853
:1003B000D6F808C00FF25C3230212C30E04707003D
:1003C00005D0019740F296239DA0009001E1059889
:1003D000006803F051FE01900FF24830009040F2A7
:1003E0009B23524600F000FA30204FF4277302900E
:1003F0000598524603212C3001900FF23C3000F05A
:1004000088FD402040F29D230290039801900FF256
:1004100038300090524600F0B9FB4FF4807040F243
:100420009E23029014A801900FF22C3000905246A7
:10043000042100F0B3FB03984021FFF7FCFDDBF83B
:100440000400C00868609BF90100062818BF08284E
:100450002DD1002068610C20E86004202861286804
:10046000007F80074CBF10201820A860686940F208
:10047000FF230490E8680390A868029068680190E0
:100480000FF2E02000F0B4F902F0FBF900F18580F2
:10049000696914A800EB410202926868161814AA50
:1004A000114400912F69002F08BFEF683CE00799C5
:1004B000012205F1380003F0A0FA070007D10799DF
:1004C000012205F1440003F098FA070006D00197D5
:1004D0000FF2C020009040F2BB237AE0079803F0AF
:1004E0008FFB68610598406F012804BF0A2068618E
:1004F000DBF80C006969E8609BF90120072A08BF56
:10050000A960B3D0DBF81420B1FBF2F102FB0121AA
:10051000A9606269022A14BF032A4018A5D0CDF849
:10052000009040F2F72341E031183A4605F11800F7
:1005300003F096FB68683A463018C11905F12800A7
:1005400003F08EFB606901282CDB6A6914A905F1B0
:10055000380003F0A1FA6A69009905F1440003F03C
:100560009BFA2068D0F83CC0BCF1000F08D001977E
:100570006968009105996B69006C14AA2C31E047F9
:10058000594605F1500003F0E2FB07000FF218286E
:1005900012D0019740F26D3319E0CDF8009040F28F
:1005A0002D3303E0CDF8009040F24933524601214B
:1005B00000F092FD40463FE005F188095946484663
:1005C00003F0C5FB070009D001974FF45D73CDF828
:1005D0000080524601F0AFFB38462DE0DBF80420E6
:1005E0000299012305F150000FF2D41703F0C4FB68
:1005F000050003D001954FF45F730BE0DBF8042096
:1006000000233146484603F0B7FB050008D00195AA
:100610004FF461730097524601F08DFB28460BE0C2
:100620004FF4807114A8FFF706FD0FF2AC1040F2F2
:10063000BD3300F05AFD002065B0BDE8F08F00002A
:10064000707266003D3E20646572697665206B6558
:100650007973000063697068657220696E666F2047
:10066000666F72202564206E6F7420666F756E64ED
:10067000000000006D626564746C735F6D642069D6
:100680006E666F20666F72202564206E6F74206620
:100690006F756E64000000007072656D6173746543
:1006A0007220736563726574000000007573696E73
:1006B0006720657874656E646564206D6173746528
:1006C0007220736563726574000000007365737354
:1006D000696F6E206861736800000000657874655A
:1006E0006E646564206D61737465722073656372F6
:1006F000657400006E6F207072656D617374657251
:10070000202873657373696F6E20726573756D65EC
:10071000642900006B657920657870616E73696F7C
:100720006E00000063697068657273756974652096
:100730003D202573000000006D61737465722073A5
:10074000656372657400000072616E646F6D206293
:1007500079746573000000006B657920626C6F63CB
:100760006B0000006B65796C656E3A2025642C2067
:100770006D696E6C656E3A2025642C2069766C6517
:100780006E3A2025642C206D61636C656E3A2025DD
:10079000640000006D626564746C735F6D645F7308
:1007A00065747570000000006D626564746C735F41
:1007B0006369706865725F7365747570000000002E
:1007C0006D626564746C735F6369706865725F7392
:1007D00065746B65790000003C3D20646572697644
:1007E00065206B65797300000321204603F0A9BEE4
:1007F000009052460321204603F0A3BE70B59EB080
:1008000004460E4603A804F07BF90FF2480002F0FC
:1008100027F840F2164300F05DFCA06B4FF4AA717C
:10082000014403A804F075F9314603A804F072FDF1
:10083000202000F061F840F21B4300F017F80FF29F
:10084000A80040F21C4302F0BBF803A804F05BF9D7
:100850001EB070BD3D3E2063616C63207665726999
:100860006679207368613235360000002A4603211C
:10087000204603F0B7BE000070B5BAB004460E467D
:1008800004A804F0B1FE0FF2480001F0E9FF40F2C5
:100890002B4300F01FFCA06B4FF4E071014404A84F
:1008A00004F0ABFE314604A805F01FFB302000F039
:1008B00023F84FF48663FFF7D9FF0FF22C0040F2C4
:1008C000314302F07DF804A804F091FE3AB070BD07
:1008D0003D3E2063616C63207665726966792073A2
:1008E00068613338340000003C3D2063616C632054
:1008F0007665726966790000019602900FF2040035
:100900000090704763616C63756C617465642076F8
:10091000657269667920726573756C7400000000F9
:100920002DE9F04F04460FF2B8108DB0DFF8948433
:10093000009040F2EA43424602212046DFF88894C4
:1009400003F0FFFDE06ADFF8ECA600281CBF206C76
:10095000002804D1CDF800A040F2EE43B8E05030BA
:1009600004F19005FFF74EFB0646A869029028693E
:1009700001900FF27C10009040F2F543424600F0E7
:1009800005F9062E18BF082E40F09E80206C2968BD
:1009900009AF0068007F800709A84CBF0826102611
:1009A000082203F05DF968690DF12D0300F0A2FA49
:1009B000A86940F25B5342460421000A8DF82F00DB
:1009C000A86938730D20029009A800F0E3F8206CA4
:1009D0000369C168C91A082904D0CDF800A040F203
:1009E000635375E0296818440822183003F038F979
:1009F0002968E868082203F033F9206C40F26C5350
:100A00004246C1680069081A04210290E868019012
:100A10000FF2204000F07DFA2F69A8690790216C41
:100A20004FF4AF63CA68096910184246401A0021A2
:100A3000A86101900FF2D8000291032101F072FE2B
:100A4000079808A909AB07EB000B206C0696CDF8B8
:100A500014B004910397079902910D210197009119
:100A6000C26800F11801503003F04EFA07000AD0B6
:100A700001970FF2D800009040F28553424601F0F2
:100A80005AF9384629E008980799884204D0CDF8E9
:100A900000A040F28B531BE0A86940F292534246FB
:100AA00004213018A8610FF2C00002960090204681
:100AB000CDF804B003F096FD0FF2C0004FF4C3630D
:100AC00001F0DCFC002008E0CDF800A040F20D634E
:100AD0004246012100F000FB48460DB0BDE8F08F12
:100AE0003D3E20656E637279707420627566000009
:100AF0006265666F726520656E63727970743A2004
:100B00006F7574707574207061796C6F616400002A
:100B10006265666F726520656E63727970743A20E3
:100B20006D73676C656E203D2025642C20696E63B3
:100B30006C7564696E672025642062797465732022
:100B40006F662070616464696E6700006D62656441
:100B5000746C735F6369706865725F617574685FF8
:100B6000656E637279707400616674657220656E7B
:100B700063727970743A2074616700003C3D2065AF
:100B80006E637279707420627566000004212046DD
:100B900003F028BD01900FF20C000090204603F0F6
:100BA00021BD00006164646974696F6E616C2064CA
:100BB000617461207573656420666F7220414541E0
:100BC000440000002DE9F04F04460FF204208FB0DE
:100BD000DFF8F09100904FF4C5634A4602212046A9
:100BE000DFF8E4A103F0ADFCA06ADFF848B4002808
:100BF0001CBFE06B002804D1CDF800B040F22C639C
:100C0000B7E08830DFF8048DFFF7FCF9E26BA16FE5
:100C10009368994206D202930FF2C410019140F2F8
:100C200035639EE0062818BF082840F09E801068B3
:100C3000007F8007D06812694CBF08251025801AF4
:100C40002A18914207D2039540F2656302900FF291
:100C5000B010019185E0081A461BE06E082207904B
:100C60000AAF09900AA8A667E16D02F0F9FF606F6C
:100C70000DF1310300F03EF9A06F40F276634A4671
:100C80000421000A8DF83300A06F38730D20029004
:100C90000AA8FFF77FFFE06B0369C168CA1AA16E5B
:100CA0001844283002F0DCFFE06B40F27D634A46D6
:100CB000C168283001900FF27C100291042100F0ED
:100CC00028F90798029540F27E634A460421871965
:100CD0000FF26810019700F01CF9E06B069505977C
:100CE00008A90491099903910AAB02960799019109
:100CF0000D210091C26800F12801883003F03CF911
:100D000005000DD001950FF24010009040F28B636A
:100D10004A4601F010F815F5C64F24D028464EE09B
:100D20000898B04204D0CDF800B040F2966320E0BD
:100D3000A06F4FF4EF630290E06E01900FF2241069
:100D400000904A46FFF722FFA06FC0B9D4F8840094
:100D5000401C0428C4F8840014DB0FF224104FF464
:100D6000FD6300F0D0F8404629E0CDF800B040F235
:100D700073734A46012100F0AFF950461FE000208E
:100D8000C4F884000820E16D00F07AFAE16D0144B6
:100D900011F8011C11B9401EF5D100E040B90FF265
:100DA000201040F2FE7300F0AEF8DFF88C0D06E084
:100DB0000FF2301040F6030300F0C1FF00200FB027
:100DC000BDE8F08F203601080094FFFF008FFFFF81
:100DD0003D3E206465637279707420627566000020
:100DE000696E5F6D73676C656E2028256429203CF1
:100DF000206D696E6C656E20282564290000000056
:100E00006D73676C656E2028256429203C20657809
:100E1000706C696369745F69765F6C656E20282504
:100E20006429202B207461676C656E202825642955
:100E30000000000049562075736564005441472046
:100E400075736564000000006D626564746C735FA7
:100E50006369706865725F617574685F6465637209
:100E600079707400726177206275666665722061C0
:100E7000667465722064656372797074696F6E0060
:100E8000726563656976656420666F757220636F4D
:100E90006E736563757469766520656D707479200D
:100EA0006D657373616765732C20706F737369620E
:100EB0006C6520446F532061747461636B000000A3
:100EC000696E636F6D696E67206D657373616765C9
:100ED00020636F756E74657220776F756C64207710
:100EE000726170003C3D20646563727970742062A9
:100EF00075660000387220686169406FC0F3400277
:100F0000206902F069BB00904A460121204603F0A7
:100F100018BB0090204603F065BB2DE9F04704465E
:100F20000FF22C1084B00D46DFF81CA100904FF496
:100F30000A63524600F0CFF8E069444F002804BF2E
:100F4000206A002804D10FF2982040F6A5030BE098
:100F5000216E41F2B530401AA16D0818A84207D29F
:100F60000FF2FC0040F6AB0300F0B9F838465DE044
:100F70000295E06F0FF208170190009740F63E13BC
:100F80005246022120460FF2141803F0DAFA0FF24B
:100F9000241902E0E06F3018E067E06FA8423ED20B
:100FA000616D2E1A08000ED0E06C884702280AD125
:100FB000CDF800906023524603212046DFF8E86C0C
:100FC00003F0BFFA11E0D4F820C0206EE16FBCF14D
:100FD000000F0144606A04D02268136E3246E04775
:100FE00002E0E3693246984706460295E06F0190B9
:100FF00040F656130097524600F06DF8019640F601
:101000005713CDF800805246022100F095FE002EC5
:1010100002D1DFF8980C09E0BCD5304606E00FF2AB
:10102000A40040F6631300F060F8002004B0BDE8AF
:10103000F08700008C360108A1010108892401080D
:1010400097010108B723010820360108008FFFFF30
:101050003D3E20666574636820696E70757400009B
:1010600072657175657374696E67206D6F72652046
:1010700064617461207468616E2066697473000035
:10108000696E5F6C6566743A2025642C206E625F21
:1010900077616E743A2025640000000073736C2D34
:1010A0003E665F72656376285F74696D656F7574FF
:1010B0002900000074696D65722065787069726539
:1010C000640000003C3D20666574636820696E70B2
:1010D000757400002A460221204603F032BA0090BF
:1010E00052460121204603F02CBA009052460221BC
:1010F000204603F026BA2DE9FE4380460FF2D000C9
:10110000DFF8AC9B00904FF4176300F0C0F808F1D3
:101110001806306840B90FF2C80040F6751300F0A9
:10112000BBF8DFF8900B51E008F1A8040FF2EC07D0
:10113000606830B9009740F67C1344E06068401B5B
:101140006060606830B30290206840F683134A46BE
:101150000221401D01900FF2D400009000F099F898
:10116000F06F216862683368084451420844411DA9
:10117000F068984705460FF2D800019540F68913AC
:1011800000904A460221404603F001FA012DD5DACB
:1011900028461BE00820B16F00F072F8B16F0144DF
:1011A00011F8011C61B9401EC0B20028F3D10FF242
:1011B000AC0040F6981300F06FF8DFF87C0905E00A
:1011C000009740F69C1300F062F80020BDE8FE8313
:1011D0003D3E20666C757368206F75747075740081
:1011E000426164207573616765206F66206D62657A
:1011F00064746C735F73736C5F7365745F62696F43
:101200002829206F72206D626564746C735F73733C
:101210006C5F7365745F62696F2829003C3D2066CE
:101220006C757368206F7574707574006D65737379
:10123000616765206C656E6774683A2025642C20B0
:101240006F75745F6C6566743A2025640000000059
:1012500073736C2D3E665F73656E64006F757467A3
:101260006F696E67206D65737361676520636F7565
:101270006E74657220776F756C6420777261700090
:10128000014411F8012C521C01F8012C70474A4608
:101290000221404603F055B900904A4601214046DC
:1012A00003F04FB9F0B5044685B004F194050FF290
:1012B00024106F69DFF8F869009040F68D233246FC
:1012C000FFF709FF2869162821D1E868017869B17C
:1012D000A26B5AB9DFF8280D40F69F2300903246E2
:1012E0000121FFF7F9FEDFF81C0D70E03A1F130C27
:1012F0004370100AEA689070EA68381FD07031B104
:10130000A36BE9683A462046D3F898329847296893
:101310002869087028686169431C2068406FC0F321
:101320004002206902F058F900F09AF8206C90B160
:101330002046FFF7F5FA07000AD00FF2A800019740
:10134000009040F60833324600F0F5FC38463EE0A7
:101350006F6900F085F86869296840F61633401D0A
:10136000A86168680278407840EA0220324604901A
:1013700088780390487802900878032101900FF252
:10138000740001F0CFF9686940F619333246042140
:10139000401D0290286801900FF29400FFF7B9FDFC
:1013A0002046FFF7A8FE05000AD0DFF85C0C019587
:1013B000009040F61E33324600F0BDFC284606E0A1
:1013C0000FF28C0040F6223301F0EAFC002005B059
:1013D000F0BD00003D3E2077726974652072656340
:1013E0006F72640073736C5F656E63727970745FA3
:1013F000627566006F7574707574207265636F72C4
:10140000643A206D736774797065203D2025642CE3
:101410002076657273696F6E203D205B25643A25E6
:10142000645D2C206D73676C656E203D2025640023
:101430006F7574707574207265636F726420736564
:101440006E7420746F206E6574776F726B0000008D
:101450003C3D207772697465207265636F72640029
:101460006968380A087068684770704730B585B099
:101470000446A06FDFF8385804280CD201900FF210
:101480006800009040F606432A460121FFF724FE3B
:10149000DFF8700D25E0E16E8B784A781B0243EA95
:1014A0000242CB781A43121DC4F8802040F6114343
:1014B0000392097801900FF2500002912A460090A1
:1014C000FFF792F9A06FD4F88010884208D20FF28B
:1014D000700040F64F4300F069FADFF8F40D00E0C9
:1014E000002005B030BD000068616E647368616BF8
:1014F00065206D65737361676520746F6F20736815
:101500006F72743A2025640068616E647368616B61
:1015100065206D6573736167653A206D73676C65EF
:101520006E203D2025642C2074797065203D202597
:10153000642C2068736C656E203D202564000000DB
:10154000544C532068616E647368616B65206672E9
:1015500061676D656E746174696F6E206E6F742063
:10156000737570706F7274656400000041681029B3
:101570001CBF836B002B05D0D0F88020C16ED3F840
:1015800098321847704770B5044688B00520DFF8D8
:1015900020570290206E01900FF21810009040F634
:1015A00097532A4604212046DFF8586C03F01AF8B6
:1015B000206E01786167616E431C0A78497841EAC0
:1015C0000221A167206805A9406FC0F3400206A868
:1015D00002F005F8A06F4FF45A6304900598039049
:1015E00006980290606F01900FF2DC0001F09EF807
:1015F000606F162818BF152811D0142818BF172897
:101600000DD00FF2001040F6A85300F0CFF90A22D7
:101610000221204600F05AFA002848D144E00698FA
:101620002169884204D00FF2F00040F6B75309E078
:101630002068059990F87100884205DA0FF2F000F1
:1016400040F6BD5300902BE0E36E41F2B532A06F3F
:101650000FF23831D21AA36D9A18824203D2009148
:1016600040F6C5531CE0E26B42B918B141F2893231
:1016700090421BD3009140F6CF5311E09268904204
:1016800003D2009140F6D7530AE06369012B0DDBCA
:1016900002F5A0528832824208D2009140F6EC5303
:1016A0002A460121FFF718FD304600E0002008B06F
:1016B00070BD0000696E707574207265636F72642E
:1016C0002068656164657200696E7075742072656A
:1016D000636F72643A206D736774797065203D2082
:1016E00025642C2076657273696F6E203D205B2522
:1016F000643A25645D2C206D73676C656E203D2017
:1017000025640000756E6B6E6F776E207265636F77
:1017100072642074797065006D616A6F72207665FD
:101720007273696F6E206D69736D61746368000018
:101730006D696E6F722076657273696F6E206D6968
:10174000736D6174636800007CB504460FF25C0041
:1017500001F086F84FF46963FFF7BCFC204600F007
:1017600055F8060006D00FF254000196009040F69E
:1017700096630DE0204600F01FF9064616F5CD4FA2
:10178000ECD03EB10FF25400019600904FF46A6322
:1017900000F03ABD606F162804BF2046FFF7E6FE52
:1017A0000FF2580040F6A96300F035BD3D3E2072AF
:1017B000656164207265636F726400006D626564C8
:1017C000746C735F73736C5F726561645F72656381
:1017D0006F72645F6C617965720000006D626564B0
:1017E000746C735F73736C5F68616E646C655F6D5E
:1017F0006573736167655F74797065003C3D207245
:10180000656164207265636F72640000FEB5044612
:10181000DFF89C54D4F8801099B1A06F814210D2A7
:10182000421AE06EA267014404F08EFEA06F40F6FB
:10183000BD630290E06E01900FF2D40000F0B0F8AA
:1018400061E000200521C4F880002046FFF765FB19
:1018500006000FF2D80703D0019640F6CD630EE0E4
:101860002046FFF790FE002834D1A06F411D20468E
:10187000FFF753FB060006D0019640F6F76300978A
:1018800000F058FA25E0002040F64963E067A06FB9
:101890002A460421401D0290206E01900FF2A40000
:1018A000FFF737FBE06B70B32046FFF78BF90600BC
:1018B00011D00FF2AC000196009040F65F6300F08B
:1018C00039FA16F5E34F04D114220221204600F024
:1018D000FDF83046FEBDA06F40F664630290E06EF6
:1018E00001900FF28C0000F05BF8A06F41F289319B
:1018F000884208D30FF2940040F6686300F056F86F
:10190000DFF80069E5E70020FEBD0000808EFFFFE4
:1019100072656D61696E696E6720636F6E74656E66
:101920007420696E207265636F7264006D62656415
:10193000746C735F73736C5F66657463685F696E04
:1019400070757400696E707574207265636F72646F
:101950002066726F6D206E6574776F726B00000089
:1019600073736C5F646563727970745F627566002F
:10197000696E707574207061796C6F616420616646
:1019800074657220646563727970740062616420AA
:101990006D657373616765206C656E6774680000C0
:1019A00000902A460421204602F01CBE00902A46E0
:1019B0000121204602F0C5BD3EB50446606F1628E1
:1019C00004D12046FFF752FD00283FD1606F152853
:1019D0003BD1E06EB64D40F679732A4641780291CC
:1019E0000078022101900FF2680000F09BFEE06E8B
:1019F000017802290CD1407840F681732A460121F2
:101A000001900FF2700000F08DFEDFF88C0C3EBDEF
:101A1000012904BF4278002A08D10FF27C0040F669
:101A2000887300F0CDFFDFF8740C3EBD012904BFC0
:101A30004078642806D10FF27C004FF4796300F0FF
:101A4000BFFF02E0DFF8200E3EBD00203EBD0000DB
:101A5000676F7420616E20616C657274206D6573B0
:101A6000736167652C20747970653A205B25643A50
:101A700025645D006973206120666174616C20617A
:101A80006C657274206D65737361676520286D7372
:101A900067202564290000006973206120636C6F52
:101AA0007365206E6F74696679206D657373616705
:101AB00065000000697320612053534C7633206E1B
:101AC0006F5F63657274000028220221F0B5040084
:101AD00083B00D4616461CBF2068002801D175480A
:101AE000FEBD0FF25800724F00904FF47C633A46EF
:101AF000FFF7F1FA04F1A000152141600221816095
:101B000001680D700068467001F03AFB05000AD0CC
:101B1000DFF8580D0195009040F6C9733A4600F081
:101B20000AF92846FEBD0FF22C0040F6CD73009056
:101B30003A4600F062BE00008094FFFF3D3E2073F5
:101B4000656E6420616C657274206D657373616786
:101B5000650000003C3D2073656E6420616C657219
:101B600074206D6573736167650000002DE9FE43A5
:101B70000446DFF83C91A06C41F20B034A46022177
:101B800006680FF2341000F0CDFD96F90A000FF24E
:101B90004011052818BF062803D0082818BF0B28B5
:101BA00003D1009141F212030BE0206804F1A0067A
:101BB00090F87400C0070BD4306948B9009141F225
:101BC0001C034A46FFF787FA6068401C606067E0C4
:101BD00020460727FEF720FA01900FF21010009020
:101BE00041F23F034A460321204602F0D3FE20463D
:101BF000FEF712FA804613E03268290CD15532689C
:101C0000290A3A44517031682A463944FF1C8D70C4
:101C1000416830683844EF1902F022F8D8F8308172
:101C2000B8F1000F19D008F1040041F285310568C0
:101C3000C91BA942E0D241F2883041F2530302901D
:101C4000E819C01C4A4601900FF2B0000090012133
:101C5000FFF742FADFF8240D23E03268F81F010C89
:101C6000000A1171316848713168F81F88711620B7
:101C700031687060B7600B20087001F07EFA0600D2
:101C800008D000F0B9FA41F26F034A4600F053F869
:101C9000304606E00FF2840041F2730300F04FF883
:101CA0000020BDE8FE8300000098FFFF808DFFFF4D
:101CB00020360108008FFFFF3D3E20777269746572
:101CC0002063657274696669636174650000000071
:101CD0003C3D20736B697020777269746520636581
:101CE0007274696669636174650000006F776E20C5
:101CF00063657274696669636174650063657274B3
:101D00006966696361746520746F6F206C617267C6
:101D1000652C202564203E20256400003C3D207772
:101D2000726974652063657274696669636174655C
:101D3000000000002A460121204602F028BC009045
:101D40004A460221204602F0FCBB2DE9F04F85B047
:101D50000546A86CDFF8808D41F27F0342460221E0
:101D6000D0F800A02868406FC0F381070FF29C20D4
:101D7000009001F0C3F99AF90A00052818BF062857
:101D800003D0082818BF0B280AD10FF2982041F27F
:101D9000860300F0E8F96868401C686000201EE1D6
:101DA0002846FFF7D1FC040006D0DFF8300D01947F
:101DB000009041F2A5037EE068680FF28426401C83
:101DC0006860686F162809D0009641F2DC0342462D
:101DD000012101F093F9DFF8BC0D00E1E86EDFF8B6
:101DE000B89D01780B2903D1D5F880100A2903D2B8
:101DF000009641F2E3038EE0027932B942798079AC
:101E000040EA0220C01D814203D0009641F2F10356
:101E100081E0686BC06D38B106F008F9686BDFF8D7
:101E20007C1D0968C06D8847DFF8742D4FF49A71E6
:101E3000126801209047696BC86558B94FF49A70D1
:101E40004FF488530190DFF85C0D00F092F9DFF851
:101E5000580DC4E006F0E6F8072000E05846D5F833
:101E6000801088422AD2EB6E1A1814781CB10096A2
:101E700041F20C134FE054789278C01C42EA0422DD
:101E8000802A24BF02EB000B594503D2009641F291
:101E9000161340E01918686BC06D04F0AFFE040023
:101EA0001CBFDFF8200D8442D8D00FF2AC10019493
:101EB000009041F21E1300F051F98FE0686B41F27F
:101EC000251342460321C06D01900FF2A810009027
:101ED000284602F05FFD2E6896F87400C00720D4F3
:101EE000A86801281DD1286BC36D23B90FF2981083
:101EF00041F231130EE0686B5A68C06D41688A4246
:101F000004D18168986806F00FF950B10FF2A01063
:101F100041F23B1300904246012101F0EFF84846A0
:101F20005DE0002F54D0A86B4FF4A67108440168FF
:101F3000002957D04268686BB36B0393736B0293AD
:101F400000F160030193D5F8B4300093736CC06D59
:101F500005F09CFF040007D00FF280100194009060
:101F600041F2661300F0FAF8686B0221C06D00F1CF
:101F7000BC06304606F045F988B1D6E90001FEF707
:101F80003FF890F90010284601F0D2FA38B10FF26C
:101F9000601041F2751300F0ECF804B94C46296862
:101FA000686B496F00F16003C06D81F0010101F0C1
:101FB0000102514601F0D7FA38B10FF2541041F244
:101FC000811300F0D6F804B94C46012F08BF002455
:101FD0000FF2601041F28A1300F0C5F8204605B0F8
:101FE000BDE8F08FF16C326D0029A4D10FF25C10C6
:101FF00041F2551300F0BDF8DFF8980CEFE7000050
:102000008C3601080094FFFFA03601083D3E207089
:102010006172736520636572746966696361746572
:10202000000000003C3D20736B697020706172738A
:102030006520636572746966696361746500000098
:1020400062616420636572746966696361746520A6
:102050006D65737361676500206D626564746C7390
:102060005F783530395F6372745F70617273655F7A
:102070006465720070656572206365727469666973
:1020800063617465000000006E6577207365727689
:102090006572206365727420647572696E67207260
:1020A000656E65676F74696174696F6E000000002A
:1020B0007365727665722063657274206368616E01
:1020C00067656420647572696E672072656E656706
:1020D0006F74696174696F6E000000007835303983
:1020E0005F7665726966795F6365727400000000EF
:1020F00062616420636572746966696361746520F6
:10210000284543206B657920637572766529000048
:1021100062616420636572746966696361746520D5
:1021200028757361676520657874656E73696F6E75
:10213000732900003C3D20706172736520636572F5
:10214000746966696361746500000000676F7420DC
:102150006E6F20434120636861696E004246012131
:10216000284602F014BA009042460221284602F0A6
:10217000E8B9009042460121284602F0E2B97CB558
:1021800004460FF23C0000F06BFB41F29A13FEF79D
:10219000A1FF04F1A00014214160012181600068C9
:1021A000017000F0EAFF060004D000F025F841F2CB
:1021B000A41329E00FF2240041F2A8132BE0000041
:1021C0003D3E207772697465206368616E676520A3
:1021D0006369706865722073706563003C3D2077A9
:1021E00072697465206368616E67652063697068F1
:1021F0006572207370656300DFF8700601960090C9
:1022000070470000008EFFFF2A460121204602F0A1
:10221000BEF9304676BD00902A460221204602F0E3
:1022200090F9002076BD7CB504460FF2A80000F0BE
:1022300017FB41F2B113FEF74DFF2046FFF784FA7A
:10224000060006D0DFF894080196009041F2B5131D
:10225000DAE7616F0FF29800142909D0009041F27B
:10226000BB132A460121FEF737FFDFF8280976BDA8
:10227000A16F012902BFE16E0978012909D0009000
:1022800041F2C1132A460121FEF726FFDFF8C40AF6
:1022900076BD0FF27C0041F2C91300F047FAA06C42
:1022A0000821E063606BA062E06D01F055FB61699D
:1022B000A06E00F0DDFAE066606841F2F7132A468E
:1022C0000221401C60600FF27C000090A6E7000035
:1022D000808FFFFF3D3E20706172736520636861EF
:1022E0006E6765206369706865722073706563004E
:1022F000626164206368616E676520636970686508
:10230000722073706563206D65737361676500008B
:10231000737769746368696E6720746F206E657780
:10232000207472616E73666F726D207370656320C6
:10233000666F7220696E626F756E6420646174618D
:10234000000000003C3D207061727365206368618D
:102350006E676520636970686572207370656300DD
:1023600091F90910806B07290CBF0FF23D010FF2A4
:102370002D01C0F89812704770B504464FF4AA7347
:10238000A06B0D461646184402F08DFFA06B324636
:1023900029464FF4E073BDE8704009E0806B4FF4CC
:1023A000AA73184402F07FBFD0F838004FF4E073EE
:1023B000184403F058BD2DE9F041A6B000F006F92D
:1023C0000BA8DFF8148702F09BFB0FF27C0041F2B0
:1023D000F82300F053F8A06B4FF4AA7101440BA846
:1023E00002F097FB202041F2043302900DA80190E7
:1023F0000FF2740000F0C6F8002F03A90BA80CBF61
:102400000FF24C170FF2581702F084FF0C200195C1
:102410000290202000F0BCF800F0C4F841F2103324
:102420004246FEF724FA0BA802F06DFB202103A818
:10243000FDF701FE0FF2381041F2163300F01EF8DE
:1024400026B0BDE8F08100003D3E2063616C632052
:102450002066696E697368656420746C73207368A4
:10246000613235360000000066696E697368656424
:102470002073686132207374617465000090424675
:102480000221204602F05DB82DE9F041C6B000F00F
:102490009DF810A8DFF8408603F0A6F80FF2780048
:1024A00041F22933FFF7EAFFA06B4FF4E0710144DA
:1024B00010A803F0A2F8402041F23533029014A88E
:1024C00001900FF2740000F05DF8002F03A910A82E
:1024D0000CBF0FF27C070FF2880703F006FD0C20FB
:1024E00001950290302000F053F800F05BF841F2C3
:1024F00041334246FEF7BBF910A803F078F83021CB
:1025000003A8FDF798FD0FF2680041F24733FFF78B
:10251000B5FF46B0BDE8F0813D3E2063616C6320AD
:102520002066696E697368656420746C73207368D3
:10253000613338340000000066696E697368656451
:102540002073686135313220737461746500000056
:10255000636C69656E742066696E69736865640092
:102560007365727665722066696E6973686564006A
:102570003C3D2063616C63202066696E6973686509
:1025800064000000009042460421204602F02AB870
:10259000009006F12C00A66B03AB3A463021D6F82A
:1025A000A46230470C20019502900FF208000090C1
:1025B0007047000063616C632066696E69736865CB
:1025C0006420726573756C74000000000446666BCD
:1025D0000D46174606B9266B7047F8B50446DFF876
:1025E000F854A06B41F269332A460321D0F83063D6
:1025F0000FF2AC0000F096F8A068012803D1022089
:10260000A0600020E060206BDFF8907520B100F042
:102610006BFE206B39688847616B00202163606323
:102620002068426A13001CBF8B68002B09D046B992
:10263000806A904728B10FF27C0041F28C33FFF79B
:10264000B5F90FF28C0041F24E3300F06FF8A06B39
:1026500000F025FEA06B396888470020A063606CFD
:1026600020B100F002FE606C39688847A06C41F22E
:10267000623360640020A0640FF2740000F056F82A
:1026800060684FF49D532A460321401C60600FF29E
:10269000800000F047F8F1BD8088FFFF8087FFFFD2
:1026A0003D3E2068616E647368616B65207772617E
:1026B00070757000636163686520646964206E6F83
:1026C000742073746F72652073657373696F6E0025
:1026D0003D3E2068616E647368616B65207772614E
:1026E0007075703A2066696E616C2066726565006F
:1026F0003C3D2068616E647368616B652077726130
:102700007075703A2066696E616C2066726565004E
:102710003C3D2068616E647368616B65207772610F
:10272000707570000090204601F00BBF00902A46A3
:102730000321204601F005BFF0B504460FF2C400A6
:1027400083B000F08DF841F2A7332A4602212046DB
:1027500004F1900601F0F5FE6169F06800F088F878
:1027600030612068A36B90F8740000F001023069BA
:10277000D3F8A032011D20469847606900283069CF
:102780000CBF24270C2737633A46011D04F1C4000F
:1027900001F066FA381D3169B061162070611420AD
:1027A0000870A06BD0F8300320B100F06AF804D4B0
:1027B0000F2001E06068401C60600FF25C0041F295
:1027C000DD33FFF7B3FF3068082101F0C5F8A06CD6
:1027D0002064606BE06200F0D3FC060007D0FFF7D6
:1027E0000BFD41F21043FFF7A5FA3046FEBD0FF294
:1027F0005C0041F2144300902A46FEF76CFC002076
:10280000FEBD00003D3E2077726974652066696EEA
:102810006973686564000000737769746368696E42
:102820006720746F206E6577207472616E73666FB7
:10283000726D207370656320666F72206F757462AD
:102840006F756E6420646174610000003C3D207708
:10285000726974652066696E69736865640000005A
:102860009D4D0090704700008099FFFFBC36010825
:10287000022905DBA16CCA68096910444942084471
:102880007047206890F87400C0077047F0B50446A0
:102890000FF2EC0085B0FFF7E3FF41F22543FEF7AE
:1028A00019FC2068A36B02A990F87400D3F8A03239
:1028B00000F0010080F00102204698472046FEF714
:1028C00043FF060007D085480196009041F22B4354
:1028D000FFF730FA32E0616F0FF2B800162908D026
:1028E000009041F231432A460121FEF7F5FBA94849
:1028F00041E0E16EDFF81C6A0A78142A04BFD4F8BC
:102900008020102A03D000904FF4A25312E0091D3A
:10291000002200230DF1080CCF5C1CF803C05B1CE7
:102920008CEA07073A430C2BF4D3D2B242B10090A1
:1029300041F247432A460121FEF7CEFB30461AE01A
:102940000C2004F1D001C4F8C00002A84CC84CC14E
:10295000A06BD0F8300320B1FFF793FF04D40A2016
:1029600001E06068401C60600FF2400041F2634388
:1029700000F026F8002005B0F0BD0000008BFFFF3E
:102980003D3E2070617273652066696E697368658B
:10299000640000006261642066696E697368656442
:1029A000206D657373616765000000003C3D207019
:1029B000617273652066696E697368656400000002
:1029C00000902A460221204601F0BBBD00F007BD61
:1029D00038B50446A06C08B100F047FC606B08B144
:1029E00000F082FCA06B08B100F059FCA06C6C4DAB
:1029F00020B92A68C02101209047A064606B20B9EB
:102A00002A687821012090476063A06B28B92A6862
:102A10004FF4527101209047A063A06B00281CBFA7
:102A2000A06C002801D0606BA8B90FF2B40041F28D
:102A3000C64300F060F9594DA06B29688847A06C27
:102A400029688847606B296888470020A063A064D4
:102A50006063554832BDFFF7B9FFA56CC021284619
:102A600005F0E8FC05F1500001F05EF905F1880081
:102A700001F05AF905F1380000F09FFF05F144001C
:102A800000F09BFFA46B4FF45271204605F0D2FC7E
:102A90004FF4AA702518284602F032F80021284683
:102AA00002F03AF84FF4E0702518284602F09CFD39
:102AB0000121284602F0A4FDDFF8C809C4F89802F5
:102AC0000220206004F1080005F0F0FC0320C4F8A7
:102AD0004401002032BD000020360108D83601082C
:102AE000616C6C6F632829206F662073736C207390
:102AF00075622D636F6E7465787473206661696C9E
:102B0000656400007CB5264D044621602A6841F2C8
:102B1000B536314601209047A06538B12A68314664
:102B20000120904704F18C01086090B90FF27C00FD
:102B30000196009041F21F53DFF818230121FEF7A0
:102B4000CBFA1649A06D096888470020A065164891
:102B500076BD486008680830886008680B30C86037
:102B600008680D30086108680D304861A06DE065A7
:102B7000A06D08302066A06D0B306066A06D0D3032
:102B8000A066A06D0D30E0662046BDE876401FE7E8
:102B9000000000000089FFFF0086FFFFEC1A032001
:102BA000E81A0320AC2B01080081FFFF616C6C6FF9
:102BB0006328256420627974657329206661696CD5
:102BC00065640000D2D9FFFF426F61F300024267E3
:102BD0007047426F61F3410242677047426F61F391
:102BE0008302426770474163826370478161C261BB
:102BF000704701614261704741628261C36100991F
:102C000001627047016670474164704770B51646AF
:102C1000DFF8DC29126804460D460C21012090479C
:102C200000B934E00560002146608160216811B977
:102C3000206004E011468A68002AFBD188600020E9
:102C400070BD4830E2E7C1640265704770B50D00A1
:102C5000044607D0284600F0DBFF0646711C01D071
:102C6000FF2E02D9DFF8840970BDDFF88429012026
:102C700012689047C4F8B40000B908E0324629460B
:102C800000F0EEFFD4F8B4100020885570BDDFF8D6
:102C9000640970BD8089FFFF016B09B1086E704740
:102CA000406B08B1006E704700F04EBC38B504466A
:102CB000256C0DB9052032BD05F15000FDF7A2F9D4
:102CC000801E05D0001F02280CD8A868401D32BD08
:102CD00015F1500069691DBF286D0028406900206A
:102CE0004018F3E70FF6A41041F6680300F003F86C
:102CF000DFF8080932BD00900FF6241201212046AA
:102D000001F01FBC0168C06ADFF8EC28496FC1F30D
:102D1000821152F8211030B190F8700052F8200062
:102D2000884238BF014608467047DFF8C008704740
:102D30000100DFF8CC081CBF0A68002A00D1F4E7C4
:102D400092F87420D2075CBF084607F01DBF704799
:102D5000000000000082FFFF70B504460025002C33
:102D600082B01CBF2068002800D16FE00FF68010F1
:102D70000FF6AC06009041F6BF033246FEF7ABF902
:102D80006068102804D02046FFF7D2FF0500F7D076
:102D90000FF66C1041F6C90300F002F8284676BD24
:102DA000009032460221204601F0CBBB7CB50446A0
:102DB0000FF65C10FFF754FD41F6F603FEF78AF9B3
:102DC0002046FFF705FEB0B960600120A0602046F4
:102DD000FFF7C2FF060007D00FF6441001960090DF
:102DE00041F60D13FFF710BA0FF64C1041F6111310
:102DF000FFF7E6FD002076BD7CB504001CBF20680F
:102E0000002807D0A0680FF6180501280FD06068C9
:102E1000102800D01AE02046FFF7C8FF060013D0A4
:102E20000FF624100196009041F63E130AE020466A
:102E3000FFF792FF060007D00FF6E400019600901E
:102E400041F64613FEF776FF304676BDDFF89C0765
:102E500076BD00002036010838B5044660681028A9
:102E600013D1A06803281FBF2568686FC0F38020B6
:102E700000280AD0E06D00F014F8012807DAD4F831
:102E8000900000F00EF8012801DA002032BD0FF6A4
:102E9000D00041F66113FFF72EFF2046BDE8324017
:102EA000AAE7082205F1680105F03EB92DE9F24FC5
:102EB00005460024002D82B090461ABF28680028DD
:102EC000DFF828075BD00FF6C4000FF254790090AA
:102ED00041F6711300F010F92846FFF7BDFF060018
:102EE00008D001960FF6AC00009041F6851300F073
:102EF000FEF8CBE06868DFF80CB7102806D028464B
:102F0000FFF72AFF07465F451ED10124286F0028DE
:102F100040F0D180696D080009D0E86C884710F155
:102F2000010F04D12868016E2846FDF789F80FF2D9
:102F3000A876DFF8D4A6A4B92846FEF705FC07005A
:102F40000FD0574509D119E0002FDFD001970FF2BC
:102F5000D070009041F6931376E0019741F6A813E4
:102F600011E0A86F002804BF686F17280DD128460C
:102F7000FEF7EAFB070008D0574501D10020B4E076
:102F8000019741F6B81300965EE0686FDFF87C6643
:102F9000DFF87CA616285DD10FF614004FF4CE534F
:102FA00000F0AFF82868416F11F001020CD1EB6E10
:102FB0001B78002B04BFD5F88030042B04D00FF60B
:102FC0000C0041F6C71369E0002A1EBFEA6E1278B2
:102FD000012A04D00FF61C0041F6D4135EE0C1F3C1
:102FE000802141B1D5F8BC10002902BF406FC0F369
:102FF000011000281BD10FF6240041F6E4130090C5
:103000004A46032100F07AF86869012806DB642249
:1030100001212846FEF75AFDD0B166E00FF26C6040
:103020004FF4D05300F06DF8DFF8D0055DE028468E
:10303000FFF7BCFE07465F451ED04FB101970FF268
:103040000870009041F6152300F051F838464CE026
:1030500094B91BE0A86803280ED12868416E0029A6
:103060000AD4E968491CE960406E884204DA0FF22C
:10307000D47041F6272311E0686F152808D10FF2AC
:10308000F87041F63123009000F036F830462CE01D
:10309000172807D00FF6080041F6372300F031F863
:1030A000504622E0E86E28676868102803D10021A6
:1030B0002846FCF7C5FFA86F296F804588BF80466A
:1030C0000298424600F0CCFDA86F41F661234A46C3
:1030D000B0EB0800A8671CBF286F404428670FF2B8
:1030E000E070009000F009F84046BDE8FE8F4A46C7
:1030F0000121284601F04BBA4A460221284601F038
:1031000020BA00904A460121284601F01ABAF0B5CB
:1031100083B004460F461646FFF7F4FD0546B54258
:1031200004F1A000C16888BF35460FF2F44659B1DA
:103130002046FDF7E0FF07001DD00FF26450019715
:10314000009041F6852311E08560172141600068F9
:103150002A46394600F084FD00F012F807000AD034
:103160000FF258500197009041F691233246FEF736
:10317000E2FD3846FEBD2846FEBD6068401C60602A
:103180002046FEF78FB82DE9FC4104460FF2387057
:103190000E46009090460FF2884541F6C623FDF793
:1031A00099FF002C1ABF20680028DFF840042BD0BC
:1031B0002046FFF751FE070006D001970FF2D450CA
:1031C000009041F6CE230DE0606810280ED0204616
:1031D000FFF7C2FD070009D001970FF2445000909D
:1031E00041F6D723FEF7A6FD38460DE042463146AC
:1031F0002046FFF78CFF06460FF2D860009041F69C
:10320000E223FDF767FF3046BDE8F6817CB5040098
:103210001CBF2068002800D118E60FF2C460FFF739
:103220001FFB41F6F123FDF755FFD4F8AC0020B1A8
:103230002046BDE87640FDF75EBF606810280ED1DD
:10324000002201212046FEF741FC060007D00FF2C4
:10325000A8600196009041F6FC23FEF7D5BF0FF25F
:10326000B86041F60133FEF7D6BF10B5040015D0A3
:1032700004F1500000F05BFD04F1880000F057FD00
:1032800004F1380000F09EFB04F1440000F09AFBCA
:103290002046C021BDE81040FCF7CDBE10BD70B582
:1032A000040020D04FF4AA70204401F02CFC4FF40D
:1032B000E070204402F09BF904F10800DFF8286375
:1032C00005F0F8F84FF49E70251828683168884793
:1032D000E86820B13168856888472800FAD120461F
:1032E0004FF45271DDE070BD38B5040010D0E06DD0
:1032F000BD4D20B104F09AFEE06D29688847606EEC
:103300002968884720467821BDE83440FCF793BE01
:1033100031BD00008081FFFF2DE9F041040082B043
:103320005AD00FF20C60FFF79BFA41F68F332A4612
:103330000221204604F1300601F003F9F06DAA4F96
:1033400041F2B53828B14146FCF775FEF06D396899
:103350008847B06A28B14146FCF76DFEB06A39680B
:103360008847706920B1FFF780FF70693968884726
:10337000B06880B1FFF793FFB069FFF776FF706820
:10338000FFF7B2FFB06839688847B0693968884785
:10339000706839688847306820B1FFF7A5FF30684A
:1033A00039688847D4F8B46056B1304600F030FC34
:1033B00001463046FCF73FFED4F8B4003968884730
:1033C0000FF2745041F6D033FFF7FAFA2046DC21B1
:1033D000BDE8FC41FCF72FBEBDE8F38100BF7821BA
:1033E00005F028B8F8B504460E4617461D46FFF707
:1033F000EBFB39462046FFF7ECFB3EB9606F20F04F
:103400000C0040F4805040F008006067606FFF22BD
:103410000721804E40F4007060671020606604F160
:10342000680007F001FF04F16F000021022D017018
:1034300012D10321C17001714170817006F1180031
:10344000E060A060606020607348606406F1240062
:10345000606506F1300011E00321C17001210171A6
:1034600003214170817000F0D9FDE060A0606060D0
:1034700020606A486064666507F0F4FEA06500207D
:10348000F2BD00007923010870B50446564DA06CCA
:10349000002803E02968866888473000FAD1204672
:1034A0007821BDE87040FCF7C6BD10B50446012187
:1034B00004F0A7FE08B1012010BD0421204604F04D
:1034C000A0FE00B1032010BD012804D0032801D1C3
:1034D0000420704700207047401E052810D8DFE800
:1034E00000F0030507090B0D032070470420704707
:1034F0000520704706207047072070470820704756
:1035000000207047C01E052810D8DFE800F0030532
:1035100007090B0D012070470220704703207047F8
:103520000420704705207047062070470020704730
:103530000068806D40B190F900202AB110F9012B8C
:103540008A42F8D1002070474FF0FF307047006882
:10355000406D38B102682AB150F8042B8A42F9D183
:1035600000207047F0E72DE9F04104461746002699
:103570000020012F1D460FD191F90A10491E09D0D4
:10358000491E022908D9491F04D0891E012998BF64
:10359000082002E0202000E08020014620464FF075
:1035A000FF3804F01DF920B12868464640F4006059
:1035B0002860012F20460CBF0FF284310FF28C31AE
:1035C000082204F025F920B12868464640F48050CE
:1035D00028603046BDE8F0811870597070471A783D
:1035E0000260587808607047EC1A0320008FFFFFD4
:1035F000E81A03200081FFFF941A03200094FFFFC4
:10360000808FFFFF0095FFFF808DFFFF0097FFFF7A
:103610000089FFFF441A03209C2504081881010833
:10362000433A5C47505F53746F72655C496F545CFA
:1036300053544D333243756265457870616E7369DA
:103640006F6E5F436C6F75645F4157535F56312EE9
:10365000312E305243335C4D6964646C657761721E
:1036600065735C54686972645F50617274795C6DF3
:10367000626564544C535C6C6962726172795C730C
:10368000736C5F746C732E630000000073686F7559
:103690006C64206E657665722068617070656E007E
:1036A0006D626564746C735F73736C5F666C757365
:1036B000685F6F7574707574000000006D626564FA
:1036C000746C735F73736C5F77726974655F726536
:1036D000636F7264000000006D626564746C735FF8
:1036E00073736C5F726561645F7265636F726400AF
:1036F0003D3E2068616E647368616B650000000088
:103700003C3D2068616E647368616B650000000079
:103710003D3E2072656E65676F7469617465000077
:103720006D626564746C735F73736C5F68616E6403
:103730007368616B650000003C3D2072656E6567D3
:103740006F7469617465000073736C5F7374617288
:10375000745F72656E65676F74696174696F6E001E
:103760007265636F726420636F756E746572206C2E
:10377000696D697420726561636865643A20726579
:103780006E65676F74696174650000003D3E20726C
:103790006561640073736C5F636865636B5F63741A
:1037A000725F72656E65676F7469617465000000B1
:1037B00072656365697665642068616E64736861CB
:1037C0006B65206D657373616765000068616E6489
:1037D0007368616B6520726563656976656420282E
:1037E0006E6F742048656C6C6F526571756573748B
:1037F0002900000068616E647368616B6520726502
:1038000063656976656420286E6F7420436C696512
:103810006E7448656C6C6F290000000072656675F7
:1038200073696E672072656E65676F74696174692C
:103830006F6E2C2073656E64696E6720616C6572B3
:103840007400000072656E65676F74696174696FFA
:103850006E207265717565737465642C2062757471
:10386000206E6F7420686F6E6F72656420627920BD
:10387000636C69656E74000069676E6F72696E676C
:10388000206E6F6E2D666174616C206E6F6E2D639D
:103890006C6F7375726520616C6572740000000056
:1038A000626164206170706C69636174696F6E201D
:1038B00064617461206D6573736167650000000069
:1038C0003C3D2072656164003D3E207772697465FD
:1038D000000000003C3D2077726974650000000024
:1038E0003D3E20777269746520636C6F7365206E4E
:1038F0006F746966790000006D626564746C735F53
:1039000073736C5F73656E645F616C6572745F6D19
:1039100065737361676500003C3D2077726974656B
:1039200020636C6F7365206E6F74696679000000A8
:103930003D3E2066726565003C3D2066726565000F
:103940002B06010505070301000000002B060105F9
:103950000507030200000000002209F0E9BB03682C
:103960001AB95A1E026008467047197811B94FF00B
:10397000FF307047591C016018787047002918BF44
:10398000FFF7EABF70470000C01E062813D8DFE823
:1039900000F004080A0C0E1006008E4870478E488E
:1039A00070478E4870478E4870478E4870478E48E3
:1039B00070478E4870470020704700210022002386
:1039C0000EC0704710B504001CBF2168002913D039
:1039D000606808B1496A8847A06840B12168C96831
:1039E0004900FFF7CBFF8249A06809688847204655
:1039F0000C21BDE81040C1E710BDF8B504460D002C
:103A0000164618BF002C01D17A48F2BD286A7A4FB9
:103A10008047606050B15EB1784AE9681268022060
:103A20009047A06020B96068696A88473846F2BD4F
:103A300025600020F2BD002880B51CBF0168002968
:103A400000D104E0406809698847002002BD694848
:103A500002BD002880B51CBF0368002B00D1F6E72B
:103A600040685B699847002002BD002880B51CBFF4
:103A70000268002A00D1EAE7406892699047002076
:103A800002BD10B50400084611461A4600D15EE09A
:103A9000E3699847002010BD2DE9F041040090B083
:103AA0000D4690461CBF2168002901D0A06808B9C6
:103AB00050483BE0C868404510D200F088F82368C1
:103AC0006068424629466D465B699847226860688F
:103AD0006946926990472068D0F808802068A768F6
:103AE0003622C16838467E1809F01EFB20685C2229
:103AF000C168304609F018FB002008E0395C2A5CF8
:103B000051403954315C2A5C51403154401C40458D
:103B1000F4D340216846FFF731FF00F057F82368DF
:103B200060683946DA685B699847002010B0BDE8E4
:103B3000F081002810B51CBF0368002B01D08468F9
:103B400004B904E040685B699847002010BD29482B
:103B500010BD70B5040090B00D461CBF2268002A4D
:103B600001D0A06808B9234819E0D16892694618C5
:103B700060686946904700F029F82368606831461C
:103B8000DA685B6998472368606869469A685B6988
:103B9000984722686068294692699047002010B0D3
:103BA00070BD000038B504001CBF2168002901D099
:103BB000A5680DB90F4832BD00F009F823686068A8
:103BC0002946DA685B699847002032BD2168606841
:103BD00009690847A42F0408D42F040804300408F6
:103BE000343004086430040894300408C4300408F5
:103BF000EC1A032000AFFFFF80AEFFFFE81A03209E
:103C000008B18068C0B2704700B1406870470000DA
:103C100000F10103810704D010F8011B89B181076D
:103C2000FAD10268B2F10131914311F0803F04BF33
:103C300050F8042FF6E710F8011B11B110F8011B22
:103C4000FBE7C01A70478268521C8260426832B13A
:103C50000268531C036011704168491E416070473F
:103C600062B38B0708D0521E11F8013B00F8013BEC
:103C700000F024808B07F6D1830740F0208000BF3E
:103C8000103A07D330B4B1E83810103AA0E8381031
:103C9000F9D230BC530724BFB1E80810A0E80810DF
:103CA00044BF51F8043B40F8043BD20724BF31F82D
:103CB000022B20F8022B44BF0B7803707047083AA0
:103CC00007D3B1E80810083A40F8043B40F804CBA9
:103CD000F7D25307E4E70268531C03601170704782
:103CE000DFF80C2300E00832516829B192F9003066
:103CF0008342F8D1084670470020704730B5DFF89E
:103D0000F03200E008335C6864B1A56995F90050B1
:103D1000854201BF65688D4294F901409442F1D11A
:103D2000586830BD002030BD382104F083BB10B589
:103D300004000BD0606B18B1216889694969884714
:103D400020463821BDE81040FFF706BE10BD38B54B
:103D500004460D0018BF002C00D14EE0382104F0BD
:103D600069FBA86900698047606310B9DFF88402C5
:103D700032BD2560002032BD70B50400DFF8780246
:103D80001CBF2568002D1DD02E7CB60702D46E689E
:103D9000964217D1012B626023721EBF95F9012054
:103DA000032A052A06D1AB696268606B9B68BDE88F
:103DB0007040184733B9AB696268606BDB68BDE877
:103DC0007040184770BD38B504001CBF206800283B
:103DD00013D091B1112A01D3884832BD037CDB078F
:103DE00008D515462A4604F12000FFF739FF256360
:103DF000002032BDC568AA42F4D27F4832BD0028F7
:103E00001CBF0168002900D15AE00021C1610020D7
:103E10007047F8B50400084611461CBF2568002D00
:103E20002DD0069A5AB30026166095F901706E6976
:103E3000012F0CD1B14201D07148F2BD1160024690
:103E400094F90810606BAC696468A047F2BD062F56
:103E500007D111600246606B01B0BDE8F04009F087
:103E600076BB0EB96748F2BD98420AD1E0690028D6
:103E700002BFB1FBF6F006FB1010002801D05E482F
:103E8000F2BD5E48F2BD00281CBF0168002900D0C9
:103E900002B915E00023136091F90110032918BF3E
:103EA000052903D0062918BF072901D10020704732
:103EB000012903D1C06910B1514870474F4870477C
:103EC0004D487047F0B583B005461E46FFF77BFFAF
:103ED000C8B92846FFF793FFA8B9099F089A0A9C1A
:103EE0003146009428463B46FFF793FF58B92068B7
:103EF00001AA39182846FFF7C6FF20B920680199A2
:103F0000081820600020FEBD2DE9F04387B004684A
:103F10000E9D0F9EDDF84080119F94F90190DDF811
:103F200048C0DDF84CE0149CB9F1060F10D1CCF874
:103F30000080CDF818E0059404970396029501934C
:103F40000B460092406B4246012109F0FAFB10E05B
:103F5000B9F1080F0CD1CCF800800594CDF810E031
:103F600003970296019500F052F809F0E6FD00E093
:103F7000224807B0BDE8F0832DE9F04786B0046819
:103F8000DFF884900E9E0F9FDDF8408094F901A029
:103F9000DDF844C0DDF848E0139C149DBAF1060F2B
:103FA0000DD1CEF80080CDF814C00497039502948B
:103FB00000F02CF809F0E2FB10F1120F0FE0BAF15B
:103FC000080F0FD1CEF8008005950494CDF80CC0F1
:103FD000029700F01BF809F0C6FD10F10F0F02D197
:103FE000484600E0054806B0BDE8F0870000000044
:103FF0001C280408809EFFFF009FFFFF809FFFFF9B
:10400000809DFFFF809CFFFF009DFFFF01960093B6
:104010001346406B0A4641467047000070B50F4C8E
:104020002068C0B90FF29405261D0AE000F018F8C8
:1040300000281FBF90F908002A28286846F8040BBA
:104040002D1D286818B104F13C018E42EED30020EA
:10405000306001202060201D70BD00002C0D052067
:104060000FF2E42100E020310A681AB18242FAD14D
:10407000084670470020704780B5FFF7F1FF10B980
:104080000FF2300002BD406802BD90F90A00401EE8
:10409000022807D9C01E07D0C01E03D0801E0128E9
:1040A00004D905E0012070470420704702207047C2
:1040B00000207047756E6B6E6F776E002CC000002D
:1040C00030C000009F000000ADC000009FC0000095
:1040D00024C0000028C000006B0000000AC00000DF
:1040E00014C0000039000000AFC00000A3C00000F1
:1040F00087C000008BC000007DC0000073C00000BE
:1041000077C00000C4000000880000002BC0000041
:104110002FC000009E000000ACC000009EC0000048
:1041200023C0000027C000006700000009C0000095
:1041300013C0000033000000AEC00000A2C00000A9
:1041400086C000008AC000007CC0000072C0000071
:1041500076C00000BE0000004500000008C000005E
:1041600012C0000016000000AB000000A7C0000055
:1041700038C00000B300000036C00000910000000D
:1041800091C000009BC0000097C00000ABC00000C1
:10419000AA000000A6C0000037C00000B200000066
:1041A00035C000009000000090C0000096C00000E4
:1041B0009AC00000AAC0000034C000008F000000B8
:1041C000FFC000009D0000009DC000003D000000F9
:1041D0003500000032C000002AC000000FC00000FF
:1041E0002EC0000026C0000005C00000A1C00000D5
:1041F0007BC00000C0000000840000008DC00000F3
:1042000079C0000089C0000075C000009C0000005B
:104210009CC000003C0000002F00000031C00000E6
:1042200029C000000EC000002DC0000025C0000005
:1042300004C00000A0C000007AC00000BA00000066
:10424000410000008CC0000078C0000088C0000061
:1042500074C000000A0000000DC0000003C0000090
:10426000AD000000B70000009500000093C0000002
:1042700099C00000AC000000B600000094000000EF
:1042800092C0000098C0000093000000A900000048
:10429000A5C00000AF0000008D0000008FC000002E
:1042A00095C00000A9C00000A8000000A4C0000044
:1042B000AE0000008C0000008EC0000094C0000022
:1042C000A8C000008B00000007C0000011C0000063
:1042D00033C000008E000000050000000400000054
:1042E0000CC0000002C00000920000008A00000024
:1042F000150000000900000006C0000010C000000A
:104300003BC000003AC0000039C00000B50000000A
:10431000B40000002D0000003B000000020000007F
:10432000010000000BC0000001C00000B900000047
:10433000B80000002E000000B1000000B000000036
:104340002C000000000000002BC00000882D040895
:104350000E0604000300000003000000030000003C
:1043600003000000000000002CC00000B02D040875
:104370001007040003000000030000000300000019
:104380000300000000000000ADC00000D82D0408AC
:104390002D060400030000000300000003000000DD
:1043A0000300000000000000AFC00000FC2D040866
:1043B0002D060400030000000300000003000000BD
:1043C0000300000002000000ACC00000202E040822
:1043D0002B0604000300000003000000030000009F
:1043E0000300000000000000AEC00000442E0408DE
:1043F0002B0604000300000003000000030000007F
:1044000003000000020000002FC00000682E040816
:104410000E0603000300000003000000030000007C
:10442000030000000000000030C00000902E0408CF
:104430001007030003000000030000000300000059
:1044400003000000000000009D000000B82E0408DA
:10445000100701000300000003000000030000003B
:1044600003000000000000009C000000D82E04089B
:104470000E0601000300000003000000030000001E
:1044800003000000000000009DC00000F82E04089A
:104490002D060100030000000300000003000000DF
:1044A0000300000000000000A1C00000142F040859
:1044B0002D060100030000000300000003000000BF
:1044C00003000000020000009CC00000302F040820
:1044D0002B060100030000000300000003000000A1
:1044E0000300000000000000A0C000004C2F0408E2
:1044F0002B06010003000000030000000300000081
:10450000030000000200000000000000682F040803
:10451000000000000000000000000000000000009B
:104520000000000000000000DFF800150860704780
:1045300010B582B004680498009060692469A047AF
:1045400013BDF0B50400ADF5017D0D4616461F46BE
:104550001CBF2068002817D00069A8B100F0FCF843
:1045600012DB869A87AB4FF4007101A809F02AFB91
:10457000B0F5FF7F05D80A2101AA1154002110448B
:10458000417001A800F028F80DF5017DF0BDF0B5EF
:10459000ADF5037D044620680D4616461F460028EB
:1045A0001CBF0069002814D000F0D6F811DB8998F0
:1045B00010F5D24F0DD04142889B01910FF27C4201
:1045C00000904FF4007102A809F01AFB02A800F055
:1045D00003F80DF5037DF0BD3B46009032462946B9
:1045E0002046A5E72DE9F04FADF5077D044620688C
:1045F0000025884691469B4600281CBF006900287C
:1046000067D0DFF828040068404562DB929F0FF214
:1046100048420097909B4FF4007106A800260FF2C5
:10462000544A09F0EDFA00F058F8112101A803F0FE
:1046300001FF04E001A906F00F028854761CBE4277
:1046400038BFB6F5805F30D216F00F0F19D176B1B2
:1046500006A801AB5246C5F500714019002509F0C6
:10466000CFFA00F03AF8112101A803F0E3FE06A802
:1046700033460FF20842C5F50071401909F0C0FA3F
:10468000451991980FF2FC32C5F50071835D06A8BB
:10469000401909F0B5FA45199198805DA0F1200103
:1046A0005F2934BF40B22E20C4E72FB911E074A2B5
:1046B00009F0A6FA4519761C06A8401916F00F0F46
:1046C000C5F50071F3D101AB524609F099FA00F03B
:1046D00004F80DF5077DBDE8F08F06A85B46009055
:1046E0004A464146204623E72DE9F043ADF5037DD8
:1046F000044620680D469046994600281CBF006974
:10470000002820D000F028F81DDB8A9E0FF27C32B2
:104710004FF4007102A8334609F072FA8B9F02A889
:1047200001974B4600F013F833460FF268324FF40E
:10473000007102A809F064FA07F10C004B460190E1
:1047400002A800F004F80DF5037DBDE8F0830090A9
:1047500042462946204603E0B4480068A842704714
:104760002DE9FD4FADF5027D0068012688464FF02A
:10477000000900281FBF006900288F9D002D6DD003
:10478000AA480068404569DB6868441E00E0641E72
:1047900024B1A86850F824000028F8D01F20A96888
:1047A00051F82410C140C90701D4401EF7D500EBD1
:1047B00044108E9B0FF2E4224FF400714F46401CD0
:1047C000009001A809F01CFA00F05CF8641C35E0C8
:1047D00036B1A86800EB840050F8040C00282CD0F7
:1047E0004FF0030A4FEACA0B26B1A86800F03AF866
:1047F00000061FD0F810002607EB10700011B7EB71
:10480000001008D1012F06DB00F033F8B14609F0A3
:10481000F7F900F037F8A8680FF26822C9F50071BF
:104820007F1C00F01FF800F0FF0301A8484409F0C6
:10483000E7F98144BAF1010AD4D5641EC8D13EB16A
:1048400001A8C9F5007176A2484409F0D9F981445C
:1048500000F00FF809F0D4F900F014F80DF5057D1B
:10486000BDE8F08F00EB840050F8040C20FA0BF048
:10487000704701A8C9F500716AA24844704700005A
:104880002020200001A8849B0090839A82984146B2
:104890004EE62DE9F04F8FB00446884691469B4680
:1048A000242106A803F0C6FD199806A903F084FD8B
:1048B00038B10FF208205B4600F03AF8FFF738FEF7
:1048C0002FE000250FF210260FF2042A0C2106A873
:1048D0006943471897F9000018B37868189B00904F
:1048E0005246102102A809F08BF900208DF817001C
:1048F0003856012804D100F017F8FFF731FF0DE01A
:10490000022804D100F010F8FFF7EEFE06E0009652
:104910005B464A4641462046FFF70AFE6D1C032DC2
:10492000D4D30FB0BDE8F08FB8685B46019002A801
:1049300000904A464146204670472DE9F043ADF5C8
:10494000017D0D4688990446904699460E4619E029
:104950000A2816D1701A471CB7F5007F01A828BF96
:1049600040F2FF173A46FFF77BF9002001A9C8552E
:1049700001A800904B46424629462046FFF7D8FD45
:10498000711C761C96F900000200E1D10DF5017D45
:10499000BDE8F0832DE9F047ADF5C16D0446206810
:1049A00000260D469046994600281CBF0069002845
:1049B00032D0DDF82C767FB3FFF7CEFE2CDBDDF8AE
:1049C00028A6761C534600960FF220124FF4007171
:1049D0000DF5816009F014F90DF5816000F028F8FB
:1049E000FFF7A6FD3B4640F2FF310FA202A802F0FE
:1049F0005BFB02A800F01CF8FFF79FFF07F1BC006B
:104A00004B4601900FF2F00000F013F8FFF741FF62
:104A1000D7F83071002FD4D10DF5C16DBDE8F08706
:104A2000203030000A00000000000000500F052078
:104A30004B46009042462946204670472573282958
:104A40002072657475726E656420256420282D308F
:104A50007825303478290A0064756D70696E672096
:104A60002725732720282575206279746573290A04
:104A700000000000202025730A0000002530347853
:104A80003A20000020253032780000002573285895
:104A900029000000257328592900000076616C75F3
:104AA00065206F66202725732720282564206269EA
:104AB0007473292069733A0A00000000696E7661F8
:104AC0006C696420504B20636F6E746578740A00C3
:104AD000257325730000000073686F756C64206E89
:104AE0006F742068617070656E0A00002573202362
:104AF00025643A0A000000006372742D3E00000035
:104B00006C2103F097BC00281CBF6C21FEF724BF6A
:104B100070476C22FFF7B4B8002202604260B9B956
:104B2000DFF844298260DFF84429C260DFF84029B9
:104B30000261DFF840294261DFF83C298261DFF839
:104B40003C29C261DFF838290262DFF8382916E013
:104B5000DFF834298260DFF83429C260DFF83029B9
:104B60000261DFF830294261DFF82C298261DFF829
:104B70002C29C261DFF828290262DFF82829426265
:104B8000816670472DE9F14FCEB0002206A84E9BFA
:104B900003EB82039B6840F82230521C082AF6D3AC
:104BA000002201EB82035D781C782D0445EA046441
:104BB0009D78DB7844EA052423430EAC44F8223088
:104BC000521C102AEDD300210469D0F81C90D0F8B3
:104BD0001480D0F818E00FF6D0030EAA4FEAF42A9A
:104BE00003EB81038AEAB415D0F808C002EB810216
:104BF000D0F80CA085EA7465A9448EEA0805254022
:104C000085EA0E05A9441D6816684D44D0F8049045
:104C100006EB050B069EDA4435464FEA753585EA04
:104C2000B606069D86EAB557069EC0F80CA009EAAE
:104C3000050549EA060606EA0C0635433D44AB4441
:104C40004FEAFA2585EABA15C0F81CB0069F069E01
:104C500085EA7A65AE4488EA040505EA0A0585EA2C
:104C60000805AE445D6847EA0B0706EA0B0607EA4B
:104C700009073E43AE445568AE444FEA7B3585EAAA
:104C8000BB05F444C0F808C085EABB557519AE44AD
:104C90004FEAFC25C0F818E085EABC154BEA0E0681
:104CA00085EA7C65A84484EA0A0505EA0C056540A6
:104CB000A8449D68A8449568A8444FEA7E3585EAD3
:104CC000BE05C14485EABE550095069F0BEA0E0558
:104CD0003E402E43009DC0F804907519A8444FEA49
:104CE000F925C0F8148085EAB9154EEA08070EEADE
:104CF000080607EA0B0785EA79653E432C198AEA1C
:104D00000C0505EA090585EA0A052C19DD682C1948
:104D1000D5682D194FEA783484EAB80484EAB85487
:104D20003619069C2F19741906970461069D2E46A4
:104D30004FEAF62686EAB5178CEA090687EA756512
:104D4000AA44069D354085EA0C05AA441D6948EA37
:104D5000040707EA0E070831AA44156955444FEACB
:104D6000743A8AEAB40686EAB45A08EA04063E436C
:104D7000564405EB0B0A06EB050B4FEAFA2585EACC
:104D8000BA15C0F81CA0C0F80CB044EA0B0785EABD
:104D90007A6507EA0807AC44069D89EA050505EA35
:104DA0000A0585EA0905AC445D69AC44556965446A
:104DB0004FEA7B3C8CEABB0686EABB5C04EA0B0646
:104DC0003E43664405EB0E0C06EB050E4FEAFC2550
:104DD00085EABC15C0F818C0C0F808E04BEA0E0719
:104DE00085EA7C652740A944069D85EA0A0606EA0D
:104DF0000C067540A9449D690BEA0E063E43A94482
:104E00009569A9444FEA7E3585EABE05C844C0F8D5
:104E1000148085EABE5575194FEAF826A94486EA3A
:104E2000B816C0F80490069D86EA7866DB69D269F8
:104E300075198AEA0C0606EA080686EA0A0A554443
:104E40002B44D3184FEA793282EAB9024EEA0906B6
:104E50000EEA090506EA0B0682EAB95246EA050996
:104E600091441A19026109EB030210290692FFF41A
:104E7000ABAE102105910EA9059A01EB8201059CAC
:104E8000049140398A6BD1F804A013464FEAF343EA
:104E900083EA72428B6B82EA93224B6A9A184FEA3A
:104EA000BA4383EAFA1383EADA039A180B689A186A
:104EB0000EAB039243F824200FF2EC52059BD0F87E
:104EC00018C002EB8302C369029202694569069F1A
:104ED000D0F808B0069E4FEAF22484EAB21484EABD
:104EE0007264E3188CEA0504144084EA0C04E318A5
:104EF000029C2468E318039C04EB0309069C4368A6
:104F0000A6464FEA7E3E8EEAB4041F4307EA0B072B
:104F100084EAB6541E4047EA060EA644C4684C44D0
:104F2000F144C460C0F81C90CF6BD1F808803E46B5
:104F30004FEAF64686EA7747CE6B87EA962E8E6A68
:104F4000B6444FEAB84686EAF81686EAD8067644AA
:104F5000B244049E4FEAF42EC6F804A08EEAB416BA
:104F60004FEA793E069F86EA7466B44485EA0206F3
:104F700026406E40B444029E47EA09071F40766807
:104F8000B444D4448EEAB906E34486EAB95E069E88
:104F9000C0F808B006EA09063E437644B444C0F8B7
:104FA00018C0D1F80CE0039E0096039F4FEAF74625
:104FB000009F86EA7746039F86EA9726CF6ABE1946
:104FC0004FEABE4787EAFE1787EADE07BE19B044FC
:104FD000049E361DC6F804804FEAFB2686EABB16FF
:104FE00086EA7B66751982EA040606EA0B065640D5
:104FF0007519029EB66875194FEA7C3686EABC06BA
:105000004544EB1886EABC56019609EA0C06009660
:10501000069F49EA0C063E40009F3E43019F4360C5
:10502000F6194FEAFA4787EA7A47751945610E691A
:1050300087EA9A2A0F6BBA444FEAB64787EAF6170F
:1050400087EAD607BA44F244049F4FEAF32E3F1D85
:10505000C7F808A08EEAB3174FEA753E87EA736770
:105060003A4484EA0B071F4067403A44029FFF68B6
:105070003A448EEAB5074CEA050E0EEA090E87EAB5
:10508000B557524400970CEA05074EEA070E009FF9
:10509000BE44069FD719724406974FEAF84787EA3D
:1050A00078470261D1F814E087EA98284F6BB8443A
:1050B0004FEABE4787EAFE1787EADE07B844B044E6
:1050C000049E361DC6F80C800094069C27464FEAC5
:1050D000F72686EAB41484EA7766009C34193E46C3
:1050E0008BEA03073E4086EA0B063419029E05EA66
:1050F00002073669341908EB04064FEA723484EA71
:10510000B20484EAB254009445EA020404EA0C04AE
:105110003C43009FE71906EB090407EB06094FEA39
:10512000FA4787EA7A47C461C0F80C908E6987EA2B
:105130009A2A8F6BBA444FEAB64787EAF61787EA8E
:10514000D607BA44F244049F4FEAF42E3F1DC7F835
:1051500010A08EEAB41787EA74674FEA793EBB4421
:10516000069F5F4027405F40BB44029F7F69BB446E
:105170008EEAB90742EA090ED34487EAB9570EEA24
:10518000050E009702EA09074EEA070E009FDC446D
:10519000C0F818C07744BB444FEAF847C0F808B0DD
:1051A00087EA7847D1F81CE087EA9828CF6BB844A3
:1051B0004FEABE4787EAFE1787EADE07B844B044E5
:1051C000049E361DC6F814804FEAFC2686EABC16FB
:1051D00086EA7C66F318069E86EA040707EA0C074F
:1051E0007E40F318029E49EA0B071740B669F31890
:1051F00043444FEA7B3888EABB0686EABB5809EA93
:105200000B063E435F1947614644F5184FEAFA43DF
:10521000456083EA7A43096A039E83EA9A234FEA48
:10522000B14A33448AEAF1164FEAF72A86EAD101F5
:105230008AEAB716C918049B714486EA77661B1D73
:105240009961069B334484EA0C063E407440E3189F
:10525000029CE469E318CB184FEA75310BEA0504A8
:1052600081EAB50181EAB5514BEA050505EA090570
:105270002C43641899180161E118069105990831C9
:1052800040290591FFF4F7AD00214E9A50F82140D6
:1052900002EB8102491C9368E31808299360F4D358
:1052A0004FB0BDE8F08F2DE9F041160004460D46E1
:1052B0002ED0206800F03F073018B042C7F14008F8
:1052C000206002D26068401C6060B7B1464514D3CC
:1052D000E019424628304544FEF7C2FC04F128019B
:1052E0002046FFF74FFCA6EB0806002705E02946FD
:1052F0002046FFF747FC4035403E402EF7D23EB1F6
:1053000032462946E0192830BDE8F041FEF7A8BC36
:10531000BDE8F08130B50D4683B004466168206871
:10532000C90041EA5071C0008DF803108DF80700E4
:105330000B0C0A0E8DF801300B0A010E8DF80020BF
:105340008DF80410010C8DF80510010A8DF802305B
:105350008DF8061020780FF2502100F03F00382819
:1053600034BFC0F13802C0F178022046FFF79BFF3E
:10537000082269462046FFF796FFA068000E2870B5
:10538000A068000C6870A068000AA870A068E870A7
:10539000E068000E2871E068000C6871E068000A9F
:1053A000A871E068E8712069000E28722069000C7D
:1053B00068722069000AA8722069E8726069000EAC
:1053C00028736069000C68736069000AA8736069DB
:1053D000E873A069000E2874A069000C6874A069C5
:1053E000000AA874A069E874E069000E2875E069F5
:1053F000000C6875E069000AA875E069E875206A24
:10540000000E2876206A000C6876206A000AA876CA
:10541000206AE876A06E50B9606A000E2877606A4C
:10542000000C6877606A000AA877606AE87737BD81
:10543000F0B59BB004460D4616461F466846FFF77A
:105440005FFB39466846FFF767FB2A4621466846F8
:10545000FFF729FF31466846FFF75CFF6846FFF714
:1054600052FB1BB0F0BD000067E6096A85AE67BB62
:1054700072F36E3C3AF54FA57F520E518C68059B36
:10548000ABD9831F19CDE05BD89E05C107D57C360B
:1054900017DD703039590EF7310BC0FF1115586800
:1054A000A78FF964A44FFABE982F8A4291443771AE
:1054B000CFFBC0B5A5DBB5E95BC25639F111F15997
:1054C000A4823F92D55E1CAB98AA07D8015B8312D9
:1054D000BE853124C37D0C55745DBE72FEB1DE8085
:1054E000A706DC9B74F19BC1C1699BE48647BEEFB4
:1054F000C69DC10FCCA10C246F2CE92DAA84744A3F
:10550000DCA9B05CDA88F97652513E986DC631A8B4
:10551000C82703B0C77F59BFF30BE0C64791A7D593
:105520005163CA0667292914850AB72738211B2E1B
:10553000FC6D2C4D130D385354730A65BB0A6A7603
:105540002EC9C281852C7292A1E8BFA24B661AA80F
:10555000708B4BC2A3516CC719E892D1240699D61F
:1055600085350EF470A06A1016C1A419086C371E98
:105570004C774827B5BCB034B30C1C394AAAD84E76
:105580004FCA9C5BF36F2E68EE828F746F63A578B1
:105590001478C8840802C78CFAFFBE90EB6C50A444
:1055A000F7A3F9BEF27871C6800000000000000089
:1055B00000000000000000000000000000000000EB
:1055C00000000000000000000000000000000000DB
:1055D00000000000000000000000000000000000CB
:1055E0000000000000000000D82102F023BF0028C6
:1055F0001CBFD821FEF7B0B97047D822FEF740BBD8
:105600000022C0E90022C0E9022271BBDFF8B82BFA
:10561000DFF8B83BC0E90423DFF8B42BDFF8B43B74
:10562000C0E90623DFF8B02BDFF8B03BC0E9082360
:10563000DFF8AC2BDFF8AC3BC0E90A23DFF8A82B7E
:10564000DFF8A83BC0E90C23DFF8A42BDFF8A43B6C
:10565000C0E90E23DFF8A02BDFF8A03BC0E9102340
:10566000DFF89C2BDFF89C3B2DE0DFF89C2BDFF86C
:105670009C3BC0E90423DFF8982BDFF8983BC0E996
:105680000623DFF8942BDFF8943BC0E90823DFF80A
:10569000902BDFF8903BC0E90A23DFF88C2BDFF872
:1056A0008C3BC0E90C23DFF8882BDFF8883BC0E98E
:1056B0000E23DFF8842BDFF8843BC0E91023DFF8EA
:1056C000802BDFF8803BC0E91223C0F8D010704770
:1056D0002DE9F14FADF53E7D0A464FF0000C02EB8F
:1056E000CC0358781C780104987841EA046141EAB7
:1056F0000021D878014318790406587944EA004417
:10570000987944EA0024D8791EAB03EBCC030CF162
:10571000010C2043BCF1100FC3E90001DFDBBCF139
:10572000500F4BDA1EA800EBCC00A0F1800EDEE992
:105730001C894FEAD8404FEA483140EA49344FEAE1
:10574000C80040EA597041EAD9454FEAC90141EA27
:10575000587160404FEA981444EA8964694081EACC
:1057600099116040DEE9128910EB080541EB090947
:10577000DEE90223924658084FEA3A0A1106140A53
:1057800040EAC27641EA1321D20944EA036442EABC
:10579000436271408AEA040081EAD311504028181C
:1057A000DEE9002349EB010180181EAA594102EBF2
:1057B000CC020CF1010CC2E90001B0E7DDF8F8C23F
:1057C000BE98D0E90401CDE91C01BE98DDE91C2397
:1057D000D0E90601CDE91A01BE98DDE91A89D0E9C0
:1057E0000801CDE91801BE98DDE918ABD0E90A013E
