:020000040800F2
:100000007832002099BD0308ADBC0308AFBC0308DB
:10001000B1BC0308B3BC0308B5BC03080000000072
:10002000000000000000000000000000B7BC030852
:10003000B9BC030800000000BBBC0308BDBC03083A
:10004000BDBD0308C1BD0308C5BD0308C9BD030884
:10005000CDBD0308D1BD0308CBBC0308D5BD030843
:10006000D9BD0308DDBD0308E1BD0308E5BD0308F4
:10007000E9BD0308EDBD0308F1BD0308F5BD0308A4
:10008000F9BD0308FDBD030801BE030805BE030852
:1000900009BE03080DBE030811BE030815BE030800
:1000A00019BE03081DBE030821BE030825BE0308B0
:1000B00029BE03082DBE030831BE030835BE030860
:1000C00039BE03083DBE030841BE030845BE030810
:1000D00049BE03084DBE030851BE030855BE0308C0
:1000E00059BE03085DBE030861BE030865BE030870
:1000F00069BE03086DBE030871BE030875BE030820
:1001000079BE03087DBE030881BE030885BE0308CF
:1001100089BE03088DBE030891BE030895BE03087F
:1001200099BE03089DBE0308A1BE0308A5BE03082F
:10013000A9BE0308ADBE0308B1BE0308B5BE0308DF
:10014000B9BE0308BDBE0308C1BE0308C5BE03088F
:10015000C9BE0308CDBE0308D1BE0308D5BE03083F
:10016000D9BE0308DDBE0308E1BE0308E5BE0308EF
:10017000E9BE0308EDBE0308000000000000000017
:10018000F1BE0308F5BE0308F9BE0308FDBE03086F
:1001900001BF030805BF03080000000009BF0308F2
:1001A0000DBF030811BF030800000000000000009D
:1001B00015BF0308000000000000000019BF03087D
:1001C0001DBF030821BF030825BF030829BF03087B
:1001D0002DBF030831BF0308003CFD00024F6666D7
:1001E0008100DA0000018100DC00F8FFDC00FAFF8A
:1001F0008100D1001F010400006D0200206E02008A
:10020000206D0200206D0200206D0200206D0200B2
:100210002054020020E0001F020401017C0C002099
:10022000CC0C00207C0C00207C0C00207C0C0020DE
:10023000AD02002094020020E0000008FD0000074D
:10024000FD000006FD000005FD000004F900052B7F
:10025000C000002CC0FA000006FD000007F90005F0
:10026000030400008813FD000002FD000004FD00EF
:100270000008FD000010FD000F14014000180240AE
:1002800000180240C911000001FD0004931A00008B
:1002900001FD0004D103000001FD0010DD62020831
:1002A000C35D0208000802400010024001FB000488
:0702B00002400024F4F700F6
:020000040801F1
:100000000846704700281CBF0068002801D1002066
:10001000704790F901007047816B00291CBFD1F82F
:100020004011002901D0086870470068816C0029E0
:10003000F9D100207047002918BF03F085BC704734
:1000400030B5044683B0206D0D4678B10FF2200024
:1000500002F044FE0195522302F05DFBE06C236D3B
:100060002A46A90803B0BDE83040184737BD000054
:100070007365745F74696D657220746F20256420E8
:100080006D7300002DE9F04FB3B006460C461546DF
:100090009946684603F089FC304603F06DFC060083
:1000A00008BFDFF8040D6BD003F0A2FD0746DDF8B2
:1000B000F4A0484603F0A4FDC0195044812828BF8D
:1000C000DFF8E80C5CD2484603F09AFD834613A89B
:1000D00000EB07085A464946404603F0B9FD3C99F3
:1000E000524608EB0B0003F0B3FD0122314668468F
:1000F00003F07BFC00280AEB0B0941D12A4621467C
:10010000684603F0C1FC4A46414600F041F800F061
:100110003AF83E9D3F9E002409E003AB00EB040C3F
:100120001B5C05F80C30401C8842F6D31446B442E0
:1001300068461AD203F02FFD09EB070200F027F8FA
:1001400003A900F021F8684603F025FD3A4600F0C7
:100150001EF800F018F83A1996423ABFB6FBF7F0CD
:1001600007FB106139460020DEE703F023FC802105
:1001700013A8FFF760FF402103A8FFF75CFF0020F2
:1001800033B0BDE8F08F13A9684603F0D8BC13A9BB
:10019000684603F0C4BC1FB500F00AF8062003E06F
:1001A0001FB500F005F80720FFF76CFF04B010BD85
:1001B000089C039400931346079C02940A46069CED
:1001C0000194014670472DE9F04F0446E5B0606B9D
:1001D000DFF868AEDFF8D46B059040F2F513A56C3C
:1001E000A06B049052460FF2804001F063FC286837
:1001F00090F9080003F06CFD5FEA000B286807D156
:1002000090F90800019040F2FB130FF26C400DE0F2
:1002100090F9090003F0B0FB079070B9286890F9D5
:100220000900019040F203230FF26C400090524607
:10023000012102F02AFE304610E26069DFF8688B87
:10024000DFF8FC9D032811D104984FF4277146185C
:10025000286890F9090007280DD1DFF8E80DB06093
:100260000FF21D603060DFF8E00D0CE0CDF800907B
:1002700040F23223A9E1DFF8D40DB0600FF28D50C7
:100280003060DFF8CC0D70604FF42B710498084497
:1002900003900498D0F8300300286FD104984FF4ED
:1002A0003B710844069040F24323F06802905246A6
:1002B0000698019003210FF2044000F06DFCA06B42
:1002C000D0F8440301283DD10FF20440009040F2E1
:1002D0004B23524602F01FFAA26BD2F89C2208A9C7
:1002E000204690476069032808D1A06C006890F907
:1002F0000900072814BF2027302700E02427029791
:1003000008A801904FF418730FF2E43000905246A1
:100310000321204603F0D8FE3020029008AB059858
:100320000FF2DC322C3001900097F1680698D6F875
:1003300008C0E04707001CD00197CAA000904FF406
:100340001A7355E1302002900598039B0FF20C427E
:100350002C30019040200090F1680698D6F808C033
:10036000E047070005D00197BEA0009040F275233A
:100370003EE106984221FFF75EFE07E00FF298305B
:1003800000904FF41F73524602F0C5F903994022C2
:1003900054A803F06DFC039820225CA903F068FCCC
:1003A00004984FF43373202254A9184403F060FCDE
:1003B000402154A8FFF73FFE4FF48070029014A82C
:1003C00001904020009030210598039BD6F808C08A
:1003D0000FF264322C30E047070005D00197A1A04E
:1003E000009040F2962303E10598006804F020F99C
:1003F000019040F29B230FF250300090524602F0E1
:100400008AF9302002904FF4277305982C30019020
:1004100052460FF248300090032100F0BEFB40200E
:10042000029040F29D230398019052460FF23C3017
:1004300001F012F84FF48070029040F29E2314A84D
:10044000019052460FF2343002F00CF8039840212C
:10045000FFF7F1FDDBF80400C00868609BF90100BC
:10046000062818BF08282FD1002068610C20E860FA
:10047000042028612868007F80074CBF10201820C6
:10048000A8606869049040F2FF23E8680390524630
:10049000A86802900321686801900FF2EC2000F038
:1004A000D7FF02F0E4F900F18780696914A800EB36
:1004B000410202926868161814AA114400912F692B
:1004C000002F08BFEF683CE00799012205F13800D2
:1004D00003F08BFA070007D10799012205F14400C8
:1004E00003F083FA070006D0019740F2BB230FF216
:1004F000C82000907CE0079803F07AFB68610598BB
:10050000406F012804BF0A206861DBF80C006969AC
:10051000E8609BF90120072A08BFA960B1D0DBF889
:100520001420B1FBF2F102FB0121A9606269022AE9
:1005300014BF032A4018A3D0CDF8009040F2F7234F
:1005400043E031183A4605F1180003F081FB686872
:100550003018C1193A4605F1280003F079FB6069AB
:1005600001282EDB6A6914A905F1380003F08CFA22
:100570006A69009905F1440003F086FA2068D0F812
:100580003CC0BCF1000F08D0019714AA6968009123
:1005900005996B69006C2C31E047594605F1500014
:1005A00003F0CDFB07000FF2242814D00197CDF8FB
:1005B000008040F26D331BE0CDF8009040F22D3307
:1005C00003E0CDF8009040F249335246012102F099
:1005D0005CFC404642E005F188095946484603F074
:1005E000AEFB070009D00197CDF800804FF45D7392
:1005F000524601F0A0FB384630E0DBF804200299B7
:10060000012305F1500003F0AFFB05000FF2D417F2
:1006100004D0019500974FF45F730CE0DBF80420E1
:1006200000233146484603F09FFB050008D00195A2
:1006300000974FF46173524601F07DFB28460DE0B0
:100640004FF4807114A8FFF7F6FC0FF2B010009081
:1006500040F2BD33524602F017FC002065B0BDE801
:10066000F08F0000707266003D3E2064657269760E
:1006700065206B6579730000636970686572206935
:100680006E666F20666F72202564206E6F74206620
:100690006F756E64000000006D626564746C735F5A
:1006A0006D6420696E666F20666F72202564206E0F
:1006B0006F7420666F756E64000000007072656D67
:1006C0006173746572207365637265740000000065
:1006D0007573696E6720657874656E646564206DF6
:1006E0006173746572207365637265740000000045
:1006F00073657373696F6E20686173680000000032
:10070000657874656E646564206D617374657220CC
:1007100073656372657400006E6F207072656D6141
:1007200073746572202873657373696F6E207265C8
:1007300073756D65642900006B657920657870615B
:100740006E73696F6E00000063697068657273751F
:10075000697465203D202573000000006D6173748D
:1007600065722073656372657400000072616E6467
:100770006F6D206279746573000000006B657920ED
:10078000626C6F636B0000006B65796C656E3A207C
:1007900025642C206D696E6C656E3A2025642C20D2
:1007A00069766C656E3A2025642C206D61636C65FA
:1007B0006E3A2025640000006D626564746C735F9E
:1007C0006D645F7365747570000000006D62656430
:1007D000746C735F6369706865725F73657475705C
:1007E000000000006D626564746C735F636970681B
:1007F00065725F7365746B65790000003C3D206431
:100800006572697665206B657973000070B59EB07E
:1008100004460E4603A804F063F90FF24C0002F000
:1008200015F840F2164302F02EFBA06B4FF4AA71AC
:10083000014403A804F05DF9314603A804F059FD12
:1008400020200290019640F21B4300F05BF80FF26B
:10085000A400009040F21C4302F015FB03A804F032
:1008600042F91EB070BD00003D3E2063616C632004
:1008700076657269667920736861323536000000EA
:1008800070B5BAB004460E4604A804F09DFE0FF2FF
:100890004C0001F0DBFF40F22B4302F0F4FAA06BB6
:1008A0004FF4E071014404A804F097FE314604A817
:1008B00005F0FFFA3020029001964FF4866300F0B5
:1008C00021F80FF23000009040F2314302F0DBFAE1
:1008D00004A804F07CFE3AB070BD00003D3E2063E9
:1008E000616C63207665726966792073686133385C
:1008F000340000003C3D2063616C632076657269C2
:10090000667900000FF20C0000902A460321204671
:1009100003F0DABB63616C63756C617465642076A7
:10092000657269667920726573756C7400000000E9
:100930002DE9F04F8DB004460FF2B010DFF8FC86C1
:10094000DFF86494DFF8F8A6009040F2EA434246EC
:1009500002F09AFAE06A00281CBF206C002804D13B
:10096000CDF800A040F2EE43B8E05030FFF74AFB6C
:1009700004F190050646A869029040F2F543286903
:10098000019042460FF2741000F066FD062E18BF6B
:10099000082E40F09F80206C0068007F2968800747
:1009A0004CBF08261026082209A803F051F909AF08
:1009B000686938720DF12D0300F08CFAA869000AFD
:1009C0008DF82F0040F25B53A869387342460D2022
:1009D0000290042109A800F085FA206C0369C1681F
:1009E000C91A082904D0CDF800A040F2635375E07D
:1009F000296818440822183003F02AF92968E868A1
:100A0000082203F025F9206CC1680069081A0290D9
:100A100040F26C53E868019042460FF2F83000F063
:100A20001BFD2F69A86907904FF4AF63216CCA685A
:100A300009691018401AA861019000210FF2DC002A
:100A400002910090424601F066FE079807EB000B0A
:100A5000206C069608A9CDF814B00491039709AB51
:100A60000799029101970D21009100F11801C268C8
:100A7000503003F041FA07000AD0019740F2855345
:100A80000FF2D4000090424601F055F938462AE0B2
:100A900008980799884204D0CDF800A040F28B5303
:100AA0001CE0A8693018A8610296CDF804B040F2A5
:100AB00092530FF2C00000904246042100F06DF8FE
:100AC0000FF2C40000904FF4C363424602F0DCF919
:100AD000002008E0CDF800A040F20D63424601215D
:100AE00002F0D3F948460DB0BDE8F08F3D3E2065D9
:100AF0006E63727970742062756600006265666F5D
:100B0000726520656E63727970743A206F757470C7
:100B10007574207061796C6F616400006265666F46
:100B2000726520656E63727970743A206D73676CBC
:100B3000656E203D2025642C20696E636C756469A8
:100B40006E67202564206279746573206F6620705B
:100B5000616464696E6700006D626564746C735FE4
:100B60006369706865725F617574685F656E6372F2
:100B700079707400616674657220656E6372797055
:100B8000743A2074616700003C3D20656E637279A1
:100B900070742062756600000090204603F094BADD
:100BA0002DE9F04F8FB004460FF20420DFF88C944B
:100BB000DFF8F4A1DFF888B400904FF4C5634A462B
:100BC00002F062F9A06A00281CBFE06B002804D183
:100BD000CDF800B040F22C63B7E08830FFF712FA8E
:100BE000E26BA16F9368DFF82C8D994206D20293D5
:100BF000019140F235630FF2C81017E0062818BFC4
:100C0000082840F09E801068007F8007D068126935
:100C10004CBF08251025801A2A18914208D2039546
:100C20000290019140F265630FF2B410009082E0EF
:100C3000081A461BE06E07900990A6670822E16D2E
:100C40000AA803F005F80AAF606F38720DF131039E
:100C500000F040F9A06F000A8DF8330040F276638F
:100C6000A06F38734A460D20029004210AA800F0B4
:100C700039F9E06B0369C168CA1AA16E18442830BB
:100C800002F0E6FFE06BC16802912830019040F26B
:100C90007D630FF2801000F03DF9079802958719E7
:100CA000019740F27E630FF2741000F033F9E06BAD
:100CB0000695059708A904910AAB09990391029634
:100CC000079901910D21009100F12801C268883037
:100CD00003F04BF905000DD0019540F28B630FF244
:100CE000481000904A4601F026F815F5C64F26D068
:100CF000284655E00898B04204D0CDF800B040F244
:100D0000966322E0A06F02904FF4EF63E06E0190D3
:100D10004A460FF2301000F09FFBA06FD8B9D4F80C
:100D20008400401C0428C4F8840017DB0FF2301044
:100D300000904FF4FD634A46012102F0A6F84046B8
:100D40002EE0CDF800B040F273734A46012102F064
:100D50009CF8504624E00020C4F884000820E16D8F
:100D600000F086FAE16D014411F8011C11B9401E32
:100D7000F5D100E058B940F2FE730FF22410009054
:100D80004A46012102F081F8DFF8AC0D08E00FF2CD
:100D90003410009040F603034A4602F075F8002034
:100DA0000FB0BDE8F08F00000094FFFF008FFFFF41
:100DB0003D3E206465637279707420627566000040
:100DC000696E5F6D73676C656E2028256429203C11
:100DD000206D696E6C656E20282564290000000076
:100DE0006D73676C656E2028256429203C2065782A
:100DF000706C696369745F69765F6C656E20282525
:100E00006429202B207461676C656E202825642975
:100E10000000000049562075736564005441472066
:100E200075736564000000006D626564746C735FC7
:100E30006369706865725F617574685F6465637229
:100E400079707400726177206275666665722061E0
:100E5000667465722064656372797074696F6E0080
:100E6000726563656976656420666F757220636F6D
:100E70006E736563757469766520656D707479202D
:100E80006D657373616765732C20706F737369622E
:100E90006C6520446F532061747461636B000000C3
:100EA000696E636F6D696E67206D657373616765E9
:100EB00020636F756E74657220776F756C64207730
:100EC000726170003C3D20646563727970742062C9
:100ED000756600002068406F6169C0F340022069B8
:100EE00002F072BB01900FF20C000090204603F05C
:100EF000EBB800006164646974696F6E616C2064B2
:100F0000617461207573656420666F72204145418C
:100F10004400000000904A460421204603F0D4B863
:100F20002DE9F04784B004460FF22C10DFF80CA135
:100F3000484F00900D464FF40A63524601F0A4FF5B
:100F4000E069002804BF206A002805D10FF2802044
:100F5000009040F6A5030CE0216E41F2B530401A36
:100F6000A16D0818A8420AD20FF2FC00009040F6CA
:100F7000AB035246012101F088FF38465BE0029541
:100F800040F63E13E06F0FF200170FF218180FF241
:100F90002C1901900097524601F076FF02E0E06FB5
:100FA0003018E067E06FA8423CD2616D2E1A08004D
:100FB0000CD0E06C8847022808D1CDF8009060235F
:100FC000524601F0A8FBDFF8E06C11E0206EE16F03
:100FD000D4F820C00144606ABCF1000F04D022683C
:100FE000136E3246E04702E0E36932469847064610
:100FF000029540F65613E06F01900097524601F0BB
:1010000043FF0196CDF8008040F657135246022167
:1010100000F092FE002E02D1DFF8900C0BE0BED55E
:10102000304608E00FF2A400009040F663135246E9
:1010300001F02AFF002004B0BDE8F0871036010857
:101040007C360108A10101086F24010897010108FD
:1010500097230108008FFFFF3D3E2066657463689B
:1010600020696E70757400007265717565737469BE
:101070006E67206D6F7265206461746120746861B1
:101080006E20666974730000696E5F6C6566743A01
:101090002025642C206E625F77616E743A2025648F
:1010A0000000000073736C2D3E665F7265637628E6
:1010B0005F74696D656F75742900000074696D65F2
:1010C0007220657870697265640000003C3D20669E
:1010D0006574636820696E70757400002DE9FE43C5
:1010E00080460FF2DC00DFF8C89B00904FF41763D6
:1010F00000F0C5F808F11806306858B90FF2D000B2
:10110000009040F675134A46012100F0BAF8DFF866
:10111000A40B53E008F1A8040FF2F007606830B99F
:10112000009740F67C1346E06068401B6060606892
:1011300028B3029040F683132068401D01904A4670
:101140000FF2D800009000F09BF8F06F2168626801
:101150003368084451420844411DF06898470546E9
:10116000019540F689130FF2D80000904A460221FB
:10117000404602F07EFF012DD6DA28461EE0082008
:10118000B16F00F075F8B16F014411F8011C79B925
:10119000401EC0B20028F3D10FF2B000009040F61C
:1011A00098134A46012100F06CF8DFF88C0905E03D
:1011B000009740F69C1300F062F80020BDE8FE8323
:1011C0003D3E20666C757368206F75747075740091
:1011D000426164207573616765206F66206D62658A
:1011E00064746C735F73736C5F7365745F62696F53
:1011F0002829206F72206D626564746C735F73734D
:101200006C5F7365745F62696F2829003C3D2066DE
:101210006C757368206F7574707574006D65737389
:10122000616765206C656E6774683A2025642C20C0
:101230006F75745F6C6566743A2025640000000069
:1012400073736C2D3E665F73656E64006F757467B3
:101250006F696E67206D65737361676520636F7575
:101260006E74657220776F756C64207772617000A0
:10127000014411F8012C521C01F8012C70474A4618
:101280000221404602F0CFBEF0B5044604F19405B9
:1012900085B06F690FF22010DFF8146A009040F6F5
:1012A0008D23324601F0F0FD2869162821D1E86827
:1012B000017869B1A26B5AB9DFF8440D009040F68D
:1012C0009F233246012101F0E0FDDFF8380D71E087
:1012D0003A1F130C4370100AEA689070381FEA68CE
:1012E000D07031B1A36BE968D3F898323A46204602
:1012F000984729682869087028686169431C206834
:10130000406FC0F34002206902F05EF900F09AF8E5
:10131000206C90B12046FFF70BFB07000AD00FF2BC
:10132000A8000090019740F60833324600F003FD14
:1013300038463FE06F6900F085F840F6163368697B
:101340002968401DA86168680278407840EA022058
:10135000049032468878039048780290087801908B
:1013600003210FF2740000F073F86869401D0290C9
:1013700040F619332868019032460FF2980000F0C9
:101380006BF82046FFF7AAFE05000AD0DFF8780CBC
:101390000090019540F61E33324600F0CCFC284602
:1013A00008E00FF29000009040F62233324601F040
:1013B0006BFD002005B0F0BD3D3E2077726974657D
:1013C000207265636F72640073736C5F656E637225
:1013D0007970745F627566006F75747075742072D1
:1013E00065636F72643A206D736774797065203D30
:1013F0002025642C2076657273696F6E203D205B1A
:1014000025643A25645D2C206D73676C656E203D04
:10141000202564006F7574707574207265636F7237
:10142000642073656E7420746F206E6574776F72BC
:101430006B0000003C3D2077726974652072656323
:101440006F7264006968380A08706868477070478E
:101450000090204602F0E7BD00900421204602F0F3
:1014600033BE30B5044685B0A06FDFF84458042879
:1014700009D2019040F606430FF2600000F01FFB16
:10148000DFF8680D27E0E16E8B784A781B0243EAAB
:101490000242CB781A43121DC4F88020039240F612
:1014A00011430978019002912A460FF2500001F091
:1014B00036F9A06FD4F8801088420BD20FF2740076
:1014C000009040F64F432A46012101F0DEFCDFF890
:1014D000E40D00E0002005B030BD000068616E64DE
:1014E0007368616B65206D65737361676520746FE8
:1014F0006F2073686F72743A2025640068616E64AF
:101500007368616B65206D6573736167653A206D03
:1015100073676C656E203D2025642C20747970659E
:10152000203D2025642C2068736C656E203D2025AD
:1015300064000000544C532068616E647368616BF2
:101540006520667261676D656E746174696F6E2087
:101550006E6F7420737570706F7274656400000034
:10156000416810291CBF836B002B05D0D0F8802068
:10157000C16ED3F898321847704770B588B00446EA
:101580000520029040F69753206EDFF82457DFF8CD
:101590005C6C01902A460FF21410FFF75DFF206E7D
:1015A00001786167431C616E0A78497841EA02213B
:1015B000A16705A92068406FC0F3400206A802F0A9
:1015C00006F8A06F04904FF45A63059803902A46DA
:1015D000069802900321606F01900FF2E400FFF77C
:1015E00037FF606F162818BF152814D0142818BFAD
:1015F000172810D00FF20410009040F6A8532A4686
:10160000012101F042FC0A220221204600F05FFA8B
:10161000002849D145E006982169884205D00FF29B
:10162000F000009040F6B75337E02068059990F835
:101630007100884205DA0FF2F000009040F6BD53C9
:101640002BE0E36EA06F0FF24C3141F2B532D21AAB
:10165000A36D9A18824203D2009140F6C5531CE054
:10166000E26B42B918B141F2893290421BD300912A
:1016700040F6CF5311E09268904203D2009140F6B9
:10168000D7530AE06369012B0DDB02F5A0528832C3
:10169000824208D2009140F6EC532A46012101F023
:1016A000F4FB304600E0002008B070BD696E707534
:1016B00074207265636F726420686561646572008E
:1016C000696E707574207265636F72643A206D7311
:1016D0006774797065203D2025642C2076657273CF
:1016E000696F6E203D205B25643A25645D2C206D7A
:1016F00073676C656E203D2025640000756E6B6E0F
:101700006F776E207265636F726420747970650004
:101710006D616A6F722076657273696F6E206D6994
:10172000736D6174636800006D696E6F7220766519
:101730007273696F6E206D69736D61746368000008
:101740007CB504460FF2600001F080F84FF4696345
:1017500001F099FB204600F057F8060006D00FF282
:1017600058000196009040F696630DE0204600F088
:101770001BF9064616F5CD4FECD03EB10FF25800DE
:10178000019600904FF46A6300F032BD606F162836
:1017900004BF2046FFF7E4FE0FF25C00009040F625
:1017A000A96300F02CBD00003D3E207265616420FD
:1017B0007265636F726400006D626564746C735F60
:1017C00073736C5F726561645F7265636F72645F8F
:1017D0006C617965720000006D626564746C735FA2
:1017E00073736C5F68616E646C655F6D6573736164
:1017F00067655F74797065003C3D207265616420A7
:101800007265636F72640000FEB50446DFF8A05491
:10181000D4F88010A1B1A06F814211D2421AE06EBB
:10182000A267014404F074FEA06F029040F6BD630D
:10183000E06E01902A460FF2E000FFF70DFE66E031
:101840000020C4F8800005212046FFF769FB060050
:101850000FF2E00704D00196009740F6CD630FE049
:101860002046FFF78AFE002834D1A06F411D204694
:10187000FFF756FB060006D00196009740F6F76387
:1018800000F058FA25E00020E06740F64963A06FB9
:10189000401D02902A46206E019004210FF2AC00F8
:1018A000FFF77AF9E06B90B32046FFF779F906006D
:1018B00011D00FF2B4000090019640F65F6300F083
:1018C00039FA16F5E34F04D114220221204600F024
:1018D000FEF83046FEBDA06F029040F66463E06EF5
:1018E00001902A460FF29000FFF7B6FDA06F41F27B
:1018F000893188420BD30FF29C00DFF8F06800902A
:1019000040F668632A46012101F0BFFAE1E70020B2
:10191000FEBD0000808EFFFF72656D61696E696EAD
:101920006720636F6E74656E7420696E20726563E4
:101930006F7264006D626564746C735F73736C5F67
:1019400066657463685F696E70757400696E707542
:1019500074207265636F72642066726F6D206E65AD
:1019600074776F726B00000073736C5F64656372F1
:101970007970745F62756600696E7075742070614D
:10198000796C6F616420616674657220646563724E
:1019900079707400626164206D657373616765209E
:1019A0006C656E67746800003EB50446606F16286B
:1019B00004D12046FFF755FD00283ED1606F152861
:1019C0003AD1E06EBA4D4178029140F679730078D1
:1019D00001902A460FF2640000F06CF8E06E017886
:1019E00002290AD14078019040F681730FF270000D
:1019F00000F065F8DFF8900C3EBD012904BF427885
:101A0000002A09D10FF27C00009040F6887301F0A3
:101A10003AFADFF8780C3EBD012904BF407864280B
:101A200007D10FF27C0000904FF4796301F02BFA9C
:101A300002E0DFF8200E3EBD00203EBD676F74203F
:101A4000616E20616C657274206D6573736167658A
:101A50002C20747970653A205B25643A25645D001A
:101A60006973206120666174616C20616C657274B9
:101A7000206D65737361676520286D736720256429
:101A8000290000006973206120636C6F7365206E0C
:101A90006F74696679206D65737361676500000016
:101AA000697320612053534C7633206E6F5F6365FA
:101AB0007274000000900221204602F0B4BA009037
:101AC0002A460121204602F0AEBA28220221F0B5B2
:101AD00083B004001CBF206800280D46164601D1C3
:101AE0007448FEBD0FF25400714F00904FF47C63B8
:101AF0003A4601F0C9F904F1A00015214160022124
:101B0000816001680D700068467001F033FB0500CC
:101B10000AD0DFF8440D0090019540F6C9733A46AB
:101B200000F009F92846FEBD0FF22800009040F6AB
:101B3000CD733A4600F057BE8094FFFF3D3E2073C0
:101B4000656E6420616C657274206D657373616786
:101B5000650000003C3D2073656E6420616C657219
:101B600074206D6573736167650000002DE9FE43A5
:101B70000446DFF83C91A06C06680FF23C10009020
:101B800041F20B034A4601F07FF996F90A000FF281
:101B90004011052818BF062803D0082818BF0B28B5
:101BA00003D1009141F2120309E000F060FE04F15C
:101BB000A0060BD4306948B9009141F21C034A4693
:101BC00001F062F96068401C606069E02046FEF741
:101BD00023FA019041F23F030FF2101000904A46A1
:101BE0000321204602F046FC2046FEF715FA07279F
:101BF000804613E03268290CD155290A32683A44EC
:101C000051702A4631683944FF1C8D704168306834
:101C1000384402F01DF8D8F83081EF19B8F1000F00
:101C200019D008F1040041F285310568C91BA942A9
:101C3000E0D241F28830029041F25303E819C01C0F
:101C400001904A460FF2B4000090012101F01DF905
:101C5000DFF8140D25E03268F81F010C1171000A3D
:101C600031684871F81F3168887116207060B7605C
:101C70000B203168087001F07AFA060008D000F0F5
:101C8000AFFA41F26F034A4600F055F8304608E0DB
:101C90000FF28800009041F273034A4601F0F4F815
:101CA0000020BDE8FE8300000098FFFF808DFFFF4D
:101CB00010360108008FFFFF3D3E20777269746582
:101CC0002063657274696669636174650000000071
:101CD0003C3D20736B697020777269746520636581
:101CE0007274696669636174650000006F776E20C5
:101CF00063657274696669636174650063657274B3
:101D00006966696361746520746F6F206C617267C6
:101D1000652C202564203E20256400003C3D207772
:101D2000726974652063657274696669636174655C
:101D3000000000002A460121204602F09AB92DE950
:101D4000F04F054685B0A86CDFF8708DD0F800A084
:101D50002868406FC0F381070FF2B020009041F275
:101D60007F034246022101F0C9F99AF90A000528C9
:101D700018BF062803D0082818BF0B280DD10FF272
:101D8000A420009041F286034246022101F0B6F9F8
:101D90006868401C6860002021E12846FFF7D0FCFD
:101DA000040006D0DFF8180D0090019441F2A5035D
:101DB0007DE068680FF28826401C6860686F16280E
:101DC00007D0009641F2DC0301F096F9DFF8A40D8C
:101DD00005E1E86EDFF8A09D01780B2903D1D5F865
:101DE00080100A2903D2009641F2E30390E00279C1
:101DF00032B94279807940EA0220C01D814203D085
:101E0000009641F2F10383E0686BC06D38B106F0D3
:101E1000F0F8686BDFF8641DC06D09688847DFF86B
:101E2000602D12684FF49A7101209047696BC86564
:101E300060B94FF49A7001904FF48853DFF8440D65
:101E4000009001F059F9DFF8580DC8E006F0CDF820
:101E5000072000E05846D5F8801088422AD2EB6E61
:101E60001A1814781CB1009641F20C1350E0547803
:101E7000927842EA0422C01C802A24BF02EB000BA5
:101E8000594503D2009641F2161341E01918686BC8
:101E9000C06D04F097FE04001CBFDFF8080D8442FB
:101EA000D8D00FF2B4100090019441F21E1300F04C
:101EB00055F993E0686BC06D019041F225130FF264
:101EC000B410009042460321284602F0D3FA2E684F
:101ED00096F87400C0071FD4A86801281CD1286B8D
:101EE000C36D2BB90FF2A010009041F231130FE037
:101EF000686BC06D5A6841688A4204D181689868ED
:101F000006F0F4F840B10FF2A810009041F23B1334
:101F100001F0F2F8484662E0002F56D0A86B4FF46B
:101F2000A6710844016800295CD04268686BB36BF5
:101F30000393736B029300F160030193D5F8B430FF
:101F40000093C06D736C05F084FF040007D00FF29E
:101F50008C100090019441F2661300F0FFF8686B5A
:101F6000C06D00F1BC060221304606F02CF990B19C
:101F7000D6E90001FEF744F890F90010284601F078
:101F8000CFFA40B10FF26810009041F2751301F0E2
:101F9000B3F804B94C462968686B496F00F16003D7
:101FA00081F0010101F00102C06D514601F0D3FA48
:101FB00040B10FF25C10009041F2811301F09CF8E7
:101FC00004B94C46012F08BF00240FF2681000909E
:101FD00041F28A134246022101F090F8204605B0F2
:101FE000BDE8F08FF16C326D00299FD10FF25C10CB
:101FF000009041F2551301F07FF8DFF8780CEEE71E
:102000007C3601080094FFFF903601083D3E2070A9
:102010006172736520636572746966696361746572
:10202000000000003C3D20736B697020706172738A
:102030006520636572746966696361746500000098
:1020400062616420636572746966696361746520A6
:102050006D65737361676500206D626564746C7390
:102060005F783530395F6372745F70617273655F7A
:102070006465720070656572206365727469666973
:1020800063617465000000006E6577207365727689
:102090006572206365727420647572696E67207260
:1020A000656E65676F74696174696F6E000000002A
:1020B0007365727665722063657274206368616E01
:1020C00067656420647572696E672072656E656706
:1020D0006F74696174696F6E000000007835303983
:1020E0005F7665726966795F6365727400000000EF
:1020F00062616420636572746966696361746520F6
:10210000284543206B657920637572766529000048
:1021100062616420636572746966696361746520D5
:1021200028757361676520657874656E73696F6E75
:10213000732900003C3D20706172736520636572F5
:10214000746966696361746500000000676F7420DC
:102150006E6F20434120636861696E004246012131
:10216000284601F086BF7CB504460FF23C0000F023
:102170006DFB41F29A1300F086FE04F1A0001421D9
:102180004160012181600068017000F0F0FF0600ED
:1021900004D000F025F841F2A41329E00FF2240046
:1021A000009041F2A8132AE03D3E207772697465E1
:1021B000206368616E67652063697068657220736B
:1021C000706563003C3D20777269746520636861C7
:1021D0006E6765206369706865722073706563005F
:1021E000DFF874060090019670470000008EFFFF34
:1021F0002A460121204601F03CFF304676BD2A46A2
:102200000221204601F00FFF002076BD7CB5044678
:102210000FF2A40000F01AFB41F2B11300F033FEFC
:102220002046FFF78DFA060006D0DFF894080090EC
:10223000019641F2B513DBE7616F0FF298001429A4
:1022400009D0009041F2BB132A46012100F01DFE87
:10225000DFF8200976BDA16F012902BFE16E097880
:10226000012909D0009041F2C1132A46012100F052
:102270000CFEDFF8C00A76BD0FF27800009041F244
:10228000C91300F047FAA06CE0630821606BA062FC
:10229000E06D01F059FB6169A06E00F0DFFAE066C5
:1022A00041F2F7136068401C60602A460FF2780024
:1022B0000090A5E7808FFFFF3D3E2070617273653F
:1022C000206368616E67652063697068657220735A
:1022D00070656300626164206368616E6765206396
:1022E00069706865722073706563206D65737361D2
:1022F00067650000737769746368696E6720746F3F
:10230000206E6577207472616E73666F726D2073D4
:1023100070656320666F7220696E626F756E6420EF
:1023200064617461000000003C3D2070617273655F
:10233000206368616E6765206369706865722073E9
:102340007065630091F90910806B07290CBF0FF2CB
:1023500039010FF22901C0F89812704770B5044690
:102360004FF4AA73A06B0D461646184402F08AFF7C
:1023700032462946A06BBDE8704007E0806B4FF401
:10238000AA73184402F07EBFD0F838004FF4E0730F
:10239000184403F04CBD2DE9F0410446A6B000F00E
:1023A000E9F80BA802F09CFB0FF28400DFF80C8721
:1023B000009041F2F823424600F066FDA06B4FF416
:1023C000AA7101440BA802F094FB2020029041F274
:1023D00004330DA8019042460FF2740000F042F859
:1023E000002F0CBF0FF258170FF2641703A90BA8A8
:1023F00002F07FFF00F0C4F8202000F0D9F800F0D0
:10240000BFF841F2103300F0BFF80BA802F06BFBED
:10241000202103A8FDF70FFE0FF24410009041F2B7
:102420001633424600F030FD26B0BDE8F0810000D2
:102430003D3E2063616C63202066696E6973686548
:102440006420746C732073686132353600000000BC
:1024500066696E697368656420736861322073749D
:102460006174650000900421204601F02DBE2DE925
:10247000F0410446C6B000F07DF810A803F0A4F8BF
:102480000FF28400DFF83486009041F2293342468F
:1024900000F0FAFCA06B4FF4E071014410A803F0C7
:1024A0009CF84020029041F2353314A80190424636
:1024B0000FF27400FFF7D6FF002F0CBF0FF280075A
:1024C0000FF28C0703A910A803F0F3FC00F058F8F2
:1024D000302000F06DF800F053F841F2413300F085
:1024E00053F810A803F073F8302103A8FDF7A3FDFB
:1024F0000FF26C00009041F24733424600F0C4FCFA
:1025000046B0BDE8F08100003D3E2063616C632071
:102510002066696E697368656420746C73207368E3
:10252000613338340000000066696E697368656461
:102530002073686135313220737461746500000066
:10254000636C69656E742066696E697368656400A2
:102550007365727665722066696E6973686564007A
:102560003C3D2063616C63202066696E6973686519
:1025700064000000666B0D46174606B9266B70476F
:102580000C200290019570470FF20C00009042461B
:102590000321204601F098BD63616C632066696E7B
:1025A000697368656420726573756C74000000005F
:1025B000009003AB06F12C00A66BD6F8A4623A4655
:1025C00030213047F8B50446DFF8F054A06BD0F85E
:1025D00030630FF2BC00009041F2693300F09AF8CA
:1025E000A068012803D10220A0600020E060206BD9
:1025F000DFF8887520B100F073FE206B39688847DA
:10260000616B2163002060632068426A13001CBF75
:102610008B68002B0CD05EB9806A904740B10FF2F6
:102620008400009041F28C332A46012100F02DFCF9
:102630000FF28C00009041F24E3300F06BF8A06B6B
:1026400000F026FEA06B396888470020A063606C0C
:1026500020B100F003FE606C39688847A06C6064AC
:1026600041F262330020A0642A460FF2740000F0A9
:1026700056F86068401C60604FF49D530FF2800074
:10268000009000F047F8F1BD8088FFFF8087FFFFD2
:102690003D3E2068616E647368616B65207772618E
:1026A00070757000636163686520646964206E6F93
:1026B000742073746F72652073657373696F6E0035
:1026C0003D3E2068616E647368616B65207772615E
:1026D0007075703A2066696E616C2066726565007F
:1026E0003C3D2068616E647368616B652077726140
:1026F0007075703A2066696E616C2066726565005F
:102700003C3D2068616E647368616B65207772611F
:10271000707570002A460321204601F084BC0090A9
:102720000321204601F07FBCF0B583B004460FF2D0
:10273000C00000F08BF841F2A73300F0A4FB04F1D5
:1027400090066169F06800F089F83061206890F8BF
:102750007400A36BD3F8A03200F001023069011DB0
:10276000204698476069002830690CBF24270C2751
:10277000011D37633A4604F1C40001F069FA381DBF
:10278000B06116207061142031690870A06BD0F818
:10279000300320B100F06BF804D40F2001E0606832
:1027A000401C60600FF25C00009041F2DD33FFF7E7
:1027B000B1FF3068082101F0C7F8A06C2064606B9D
:1027C000E06200F0D7FC060007D0FFF709FD41F2F8
:1027D0001043FFF7AFFA3046FEBD0FF25C000090E9
:1027E00041F214432A4600F04FFB0020FEBD0000DA
:1027F0003D3E2077726974652066696E697368650D
:1028000064000000737769746368696E6720746F91
:10281000206E6577207472616E73666F726D2073BF
:1028200070656320666F72206F7574626F756E6479
:1028300020646174610000003C3D2077726974651A
:102840002066696E69736865640000009B4D0090A6
:10285000704700008099FFFFAC360108022905DBB4
:10286000A16CCA680969104449420844704720684D
:1028700090F87400C0077047F0B585B004460FF2B9
:10288000EC00FFF7E3FF41F2254300F0FCFA20687B
:10289000A36B90F87400D3F8A03200F0010080F030
:1028A000010202A9204698472046FEF749FF06008C
:1028B00007D083480090019641F22B43FFF73AFA84
:1028C00032E0616F0FF2B800162908D0009041F293
:1028D00031432A46012100F0D8FAA64842E0E16ED1
:1028E000DFF8246A0A78142A04BFD4F88020102A5A
:1028F00003D000904FF4A25312E0091D00220023E0
:102900000DF1080CCF5C1CF803C08CEA07073A43B2
:102910005B1C0C2BF4D3D2B242B1009041F247437E
:102920002A46012100F0B1FA30461BE00C20C4F821
:10293000C00004F1D00102A84CC84CC1A06BD0F873
:10294000300320B1FFF793FF04D40A2001E0606850
:10295000401C60600FF24000009041F2634300F0C1
:1029600092FA002005B0F0BD008BFFFF3D3E2070C5
:10297000617273652066696E697368656400000042
:102980006261642066696E6973686564206D657351
:1029900073616765000000003C3D207061727365E3
:1029A0002066696E697368656400000000F010BD00
:1029B00038B50446A06C08B100F050FC606B08B15B
:1029C00000F08EFCA06B08B100F062FCA06C6C4DB6
:1029D00020B92A68C02101209047A064606B20B90B
:1029E0002A687821012090476063A06B28B92A6883
:1029F0004FF4527101209047A063A06B00281CBFC8
:102A0000A06C002801D0606BC0B90FF2B8002B4A4F
:102A10005A4D009041F2C643012100F036FAA06BF6
:102A200029688847A06C29688847606B29688847AF
:102A30000020A063A0646063594832BDFFF7B6FF71
:102A4000A56CC021284605F0D7FC05F1500001F027
:102A500063F905F1880001F05FF905F1380000F035
:102A6000A4FF05F1440000F0A0FFA46B4FF45271E5
:102A7000204605F0C1FC4FF4AA702518284602F044
:102A80002FF80021284602F037F84FF4E07025189F
:102A9000284602F099FD0121284602F0A1FDDFF849
:102AA000D409C4F898020220206004F1080005F05F
:102AB000DFFC0320C4F84401002032BD10360108B9
:102AC000C8360108616C6C6F632829206F6620731B
:102AD000736C207375622D636F6E746578747320E8
:102AE0006661696C656400007CB50446244D216014
:102AF00041F2B5362A68314601209047A06538B1C9
:102B00002A6831460120904704F18C01086088B999
:102B10000FF2740000F0E2F8019641F21F53012118
:102B200000F0B3F91549A06D096888470020A06539
:102B30001B4876BD486008680830886008680B301C
:102B4000C86008680D30086108680D304861A06DE4
:102B5000E065A06D08302066A06D0B306066A06D4A
:102B60000D30A066A06D0D30E0662046BDE87640D1
:102B70001EE700000089FFFF0086FFFF2003002002
:102B80001C030020882B0108616C6C6F632825648E
:102B900020627974657329206661696C6564000040
:102BA0000081FFFFD2D9FFFF426F61F3000242674D
:102BB0007047426F61F3410242677047426F61F3B1
:102BC0008302426770474163826370478161C261DB
:102BD000704701614261704741628261C36100993F
:102BE00001627047016670474164704770B51646D0
:102BF000DFF8EC2904460D4612680C2101209047AD
:102C000000B934E00021056081604660216811B997
:102C1000206004E011468A68002AFBD18860002009
:102C200070BD4830E2E7C1640265704770B50D00C1
:102C3000044607D0284600F0E3FF0646711C01D089
:102C4000FF2E02D9DFF8940970BDDFF894291268CD
:102C500001209047C4F8B40000B908E03246294684
:102C600000F0F6FFD4F8B4100020885570BDDFF8EE
:102C7000740970BD8089FFFF016B09B1086E704750
:102C8000406B08B1006E704700F056BC38B5044682
:102C9000256C0DB9052032BD05F15000FDF7B2F9E4
:102CA000801E05D0001F02280CD8A868401D32BD28
:102CB00015F1500069691DBF286D0028406900208A
:102CC0004018F3E70FF6B41000F008F841F6680377
:102CD000012100F0DAF8DFF8140932BD0FF63012E6
:102CE000009070470168DFF80029496FC06AC1F39E
:102CF000821152F8211030B190F8700052F8200083
:102D0000884238BF014608467047DFF8D008704750
:102D100001001CBF0A68002ADFF8D40800D1F4E7DC
:102D200092F87420D2075CBF084607F009BF7047CD
:102D3000000000000082FFFF70B50446002582B04D
:102D4000002C1CBF2068002800D16CE00FF690100A
:102D50000FF6BC06009041F6BF03324600F094F82F
:102D60006068102804D02046FFF7D2FF0500F7D096
:102D70000FF67C10009041F6C903324600F084F84B
:102D8000284676BD7CB504460FF67410FFF75EFD4D
:102D900041F6F60300F077F82046FFF709FEB8B9D0
:102DA00060600120A0602046FFF7C6FF060007D044
:102DB0000FF65C100090019641F60D13FFF718BA5C
:102DC0000FF66410009041F6111300F05CF800203B
:102DD00076BD7CB504001CBF2068002807D0A06821
:102DE0000FF62C0501280FD06068102800D01AE0DB
:102DF0002046FFF7C7FF060013D00FF63C100090E7
:102E0000019641F63E130AE02046FFF795FF0600C3
:102E100007D00FF6FC000090019641F64613FEF72E
:102E200089FF304676BDDFF8B40776BD38B5044675
:102E30006068102813D1A06803281FBF2568686F39
:102E4000C0F3802000280AD0E06D00F017F80128B8
:102E500007DAD4F8900000F011F8012801DA002018
:102E600032BD0FF6EC00FFF739FF41F66113012187
:102E700000F00BF82046BDE83240AAE7082205F131
:102E8000680105F033B92A460221204601F0CBB88B
:102E90002DE9F24F0546002482B0002D1ABF2868A4
:102EA0000028DFF8380790465DD00FF6D0000FF20B
:102EB0006079009041F671134A46022100F01EF934
:102EC0002846FFF7B3FF060008D0019641F68513A8
:102ED0000FF6B000009000F00AF9D4E06868DFF85F
:102EE00014B7102806D02846FFF726FF07465F458F
:102EF0001ED10124286F002840F0DC80696D080095
:102F000009D0E86C884710F1010F04D12868016EE0
:102F10002846FDF795F80FF2B076DFF8DCA6A4B9E5
:102F20002846FEF70DFC07000FD0574508D119E0E1
:102F3000002FDFD0019741F693130FF2D4707CE09D
:102F40000197009641F6A81378E0A86F002804BF07
:102F5000686F17280DD12846FEF7F2FB070008D04E
:102F6000574501D10020C0E00197009641F6B81303
:102F700064E0686FDFF88466DFF884A6162863D102
:102F80000FF61C0000904FF4CE534A4600F0B5F8FF
:102F90002868416F11F001020DD1EB6E1B78002BF8
:102FA00004BFD5F88030042B05D00FF61000009038
:102FB00041F6C71370E0002A1EBFEA6E1278012A9C
:102FC00005D00FF62000009041F6D41364E0C1F361
:102FD000802141B1D5F8BC10002902BF406FC0F379
:102FE000011000281DD10FF62400009041F6E413D3
:102FF0004A46032100F082F86869012806DB642252
:1030000001212846FEF763FDE0B16EE00FF26C602F
:1030100000904FF4D0534A4600F06FF8DFF8CC052B
:1030200063E02846FFF7AEFE07465F451FD04FB16D
:10303000019741F615230FF20070009000F057F849
:10304000384652E09CB91EE0A86803280FD12868D2
:10305000416E00290BD4E968491CE960406E884242
:1030600005DA0FF2D070009041F6272314E0686F64
:1030700015280AD10FF2F070009041F631234A462C
:10308000022100F03BF830462FE0172809D00FF658
:103090000000009041F637234A4600F02EF85046D3
:1030A00023E0E86E28676868102803D100212846CD
:1030B000FCF7C6FFA86F296F804588BF804602983D
:1030C000424600F0C5FDA86FB0EB0800A86741F6C6
:1030D00061231CBF286F404428674A460FF2D07016
:1030E0000090022100F00AF84046BDE8FE8F4A46F3
:1030F0000121284600F0BDBF42460121284600F0CC
:1031000092BFF0B583B004460F461646FFF7EAFDBE
:10311000054604F1A000B54288BF3546C1680FF2EC
:10312000F04659B12046FDF7D9FF07001DD00FF238
:1031300060500197009041F6852311E017218560CA
:1031400041602A460068394600F082FD00F012F81E
:1031500007000AD00FF254500197009041F69123D6
:103160003246FEF7E8FD3846FEBD2846FEBD6068E3
:10317000401C60602046FEF787B82DE9FC410446FC
:103180000FF23470FFF762FB0E46904641F6C623FD
:10319000FFF779FE002C1ABF20680028DFF83C04F6
:1031A0002AD02046FFF742FE070005D0019741F6DE
:1031B000CE230FF2D0500CE0606810280ED02046CD
:1031C000FFF7BAFD070009D0019741F6D7230FF2A8
:1031D00040500090FEF7AEFD38460DE042463146C5
:1031E0002046FFF78EFF06460FF2D860009041F6AA
:1031F000E223FFF748FE3046BDE8F6817CB50400C7
:103200001CBF2068002800D10DE60FF2C460FFF754
:103210001DFB41F6F123FFF736FED4F8AC0020B1D8
:103220002046BDE87640FDF759BF606810280ED1F2
:10323000002201212046FEF74AFC060007D00FF2CB
:10324000A8600090019641F6FC23FEF7D1BF0FF273
:10325000B860009041F60133FEF7D1BF10B504000D
:1032600015D004F1500000F05AFD04F1880000F080
:1032700056FD04F1380000F09DFB04F1440000F01D
:1032800099FB2046BDE81040C021FCF7D4BE10BD1C
:1032900070B5040023D04FF4AA70204401F023FC41
:1032A0004FF4E070204402F092F904F1080005F0B8
:1032B000E3F84FF49E702518DFF81C632868316826
:1032C0008847E86820B18568316888472800FAD1C6
:1032D0002046BDE870404FF45271FCF7ACBE70BDA3
:1032E00038B504000ED0E06DBB4D20B104F081FE76
:1032F000E06D29688847606E296888472046BDE8E8
:103300003440C7E031BD00008081FFFF2DE9F0416E
:10331000040082B059D00FF208600FF2F425AE4FCE
:10332000009041F68F33FFF7AEFD04F1300641F215
:10333000B538F06D28B14146FCF77DFEF06D396877
:103340008847B06A28B14146FCF775FEB06A396813
:103350008847706920B1FFF781FF70693968884735
:10336000B06880B1FFF794FFB069FFF777FF70682E
:10337000FFF7B6FFB06839688847B0693968884791
:10338000706839688847306820B1FFF7A9FF306856
:1033900039688847D4F8B46056B1304600F030FC44
:1033A00001463046FCF747FED4F8B4003968884738
:1033B0000FF27450009041F6D033FFF764FD2046C1
:1033C000BDE8FC41DC21FCF736BEBDE8F38100BF5F
:1033D000782105F011B8F8B504460E4617461D468B
:1033E000FFF7E2FB39462046FFF7E3FB3EB9606F8B
:1033F00020F00C0040F4805040F008006067FF228D
:10340000606F804E40F40070606707211020606696
:1034100004F1680007F0DCFE04F16F000021022DCA
:10342000017012D10321C17001714170817006F1E8
:103430001800E060A060606020607348606406F17E
:103440002400606506F1300011E00321C170012104
:10345000017103214170817001F0BCF8E060A0604F
:103460006060206066656948606407F0CFFEA06513
:103470000020F2BD5D23010870B50446564DA06CD6
:10348000002803E08668296888473000FAD1204682
:10349000BDE870407821FCF7CEBD10B5044601218F
:1034A00004F091FE08B1012010BD0421204604F073
:1034B0008AFE00B1032010BD012804D0032801D1E9
:1034C0000420704700207047401E052810D8DFE810
:1034D00000F0030507090B0D032070470420704717
:1034E0000520704706207047072070470820704766
:1034F00000207047C01E052810D8DFE800F0030543
:1035000007090B0D01207047022070470320704708
:103510000420704705207047062070470020704740
:103520000068806D40B190F900202AB110F9012B9C
:103530008A42F8D1002070474FF0FF307047006892
:10354000406D38B102682AB150F8042B8A42F9D193
:1035500000207047F0E72DE9F041044617460026A9
:103560000020012F1D460FD191F90A10491E09D0E4
:10357000491E022908D9491F04D0891E012998BF74
:10358000082002E0202000E080200146204604F0D0
:103590000BF94FF0FF3820B1286840F40060286034
:1035A0004646012F0CBF0FF288310FF290310822EE
:1035B000204604F013F920B1286840F480502860B8
:1035C00046463046BDE8F0811870597070471A7849
:1035D000026058780860704720030020008FFFFFCA
:1035E0001C0300200081FFFFE40200200094FFFF85
:1035F000808FFFFF0095FFFF808DFFFF0097FFFF8B
:103600000089FFFFB002002044A40308DC80010809
:10361000433A5C47505F53746F72655C496F545C0A
:1036200053544D333243756265457870616E7369EA
:103630006F6E5F436C6F75645F4157535F56312EF9
:10364000312E305243335C4D6964646C657761722E
:1036500065735C54686972645F50617274795C6D03
:10366000626564544C535C6C6962726172795C731C
:10367000736C5F746C732E630000000073686F7569
:103680006C64206E657665722068617070656E008E
:103690006D626564746C735F73736C5F666C757375
:1036A000685F6F7574707574000000006D6265640A
:1036B000746C735F73736C5F77726974655F726546
:1036C000636F7264000000006D626564746C735F08
:1036D00073736C5F726561645F7265636F726400BF
:1036E0003D3E2068616E647368616B650000000098
:1036F0003C3D2068616E647368616B65000000008A
:103700003D3E2072656E65676F7469617465000087
:103710006D626564746C735F73736C5F68616E6413
:103720007368616B650000003C3D2072656E6567E3
:103730006F7469617465000073736C5F7374617298
:10374000745F72656E65676F74696174696F6E002E
:103750007265636F726420636F756E746572206C3E
:10376000696D697420726561636865643A20726589
:103770006E65676F74696174650000003D3E20727C
:103780006561640073736C5F636865636B5F63742A
:10379000725F72656E65676F7469617465000000C1
:1037A00072656365697665642068616E64736861DB
:1037B0006B65206D657373616765000068616E6499
:1037C0007368616B6520726563656976656420283E
:1037D0006E6F742048656C6C6F526571756573749B
:1037E0002900000068616E647368616B6520726512
:1037F00063656976656420286E6F7420436C696523
:103800006E7448656C6C6F29000000007265667507
:1038100073696E672072656E65676F74696174693C
:103820006F6E2C2073656E64696E6720616C6572C3
:103830007400000072656E65676F74696174696F0A
:103840006E207265717565737465642C2062757481
:10385000206E6F7420686F6E6F72656420627920CD
:10386000636C69656E74000069676E6F72696E677C
:10387000206E6F6E2D666174616C206E6F6E2D63AD
:103880006C6F7375726520616C6572740000000066
:10389000626164206170706C69636174696F6E202D
:1038A00064617461206D6573736167650000000079
:1038B0003C3D2072656164003D3E2077726974650D
:1038C000000000003C3D2077726974650000000034
:1038D0003D3E20777269746520636C6F7365206E5E
:1038E0006F746966790000006D626564746C735F63
:1038F00073736C5F73656E645F616C6572745F6D2A
:1039000065737361676500003C3D2077726974657B
:1039100020636C6F7365206E6F74696679000000B8
:103920003D3E2066726565003C3D2066726565001F
:103930002B06010505070301000000002B06010509
:103940000507030200000000002209F09DBB036888
:103950001AB95A1E026008467047197811B94FF01B
:10396000FF307047591C016018787047002918BF54
:10397000FFF7EABF70470000C01E062813D8DFE833
:1039800000F004080A0C0E1006008E4870478E489E
:1039900070478E4870478E4870478E4870478E48F3
:1039A00070478E4870470020704700210022002396
:1039B0000EC0704710B504001CBF2168002913D049
:1039C000606808B1496A8847A06840B12168C96841
:1039D0004900FFF7CBFF8249A06809688847204665
:1039E000BDE810400C21C1E710BDF8B504460D003C
:1039F00018BF002C164601D17A48F2BD286A7A4FCA
:103A00008047606050B15EB1784AE9681268022070
:103A10009047A06020B96068696A88473846F2BD5F
:103A200025600020F2BD80B500281CBF0168002978
:103A300000D104E0406809698847002002BD694858
:103A400002BD80B500281CBF0368002B00D1F6E73B
:103A500040685B699847002002BD80B500281CBF04
:103A60000268002A00D1EAE7406892699047002086
:103A700002BD10B50400084611461A4600D15CE0AC
:103A8000E3699847002010BD2DE9F04190B0040093
:103A90000D461CBF21680029904601D0A06808B9D6
:103AA000504839E0C868404510D200F088F82368D3
:103AB00060685B6942462946984722686068926957
:103AC000694690472068D0F808806D462068A7684E
:103AD000C1687E183622384609F0D2FA2068C168DB
:103AE0005C22304609F0CCFA002008E0395C2A5C00
:103AF000514039542A5C315C51403154401C40459E
:103B0000F4D340216846FFF731FF00F057F800F08A
:103B10003DF839469847002010B0BDE8F08110B557
:103B200000281CBF0368002B01D0846804B904E09E
:103B300040685B699847002010BD2A4810BD70B5E9
:103B400090B004001CBF2268002A0D4601D0A06876
:103B500008B9244817E0D168926946186068694638
:103B6000904700F02BF800F011F831469847236891
:103B70009A6860685B6969469847226860689269DC
:103B800029469047002010B070BD00002368DA6815
:103B900060685B69704738B504001CBF2168002964
:103BA00001D0A5680DB90F4832BD00F008F8FFF745
:103BB000EDFF29469847002032BD0000216860686B
:103BC0000969084730B5030860B5030890B50308D4
:103BD000C0B50308F0B5030820B6030850B60308C3
:103BE0002003002000AFFFFF80AEFFFF1C0300207A
:103BF00008B18068C0B2704700B1406870470000EB
:103C000000F10103810704D010F8011B89B181077D
:103C1000FAD10268B2F10131914311F0803F04BF43
:103C200050F8042FF6E710F8011B11B110F8011B32
:103C3000FBE7C01A70478268521C8260426832B14A
:103C40000268531C036011704168491E416070474F
:103C500062B38B0708D0521E11F8013B00F8013BFC
:103C600000F024808B07F6D1830740F0208000BF4E
:103C7000103A07D330B4B1E83810103AA0E8381041
:103C8000F9D230BC530724BFB1E80810A0E80810EF
:103C900044BF51F8043B40F8043BD20724BF31F83D
:103CA000022B20F8022B44BF0B7803707047083AB0
:103CB00007D3B1E80810083A40F8043B40F804CBB9
:103CC000F7D25307E4E70268531C03601170704792
:103CD000DFF8102300E00832516829B192F9003072
:103CE0008342F8D1084670470020704730B5DFF8AE
:103CF000F43200E008335C6864B1A56995F90050BE
:103D0000854201BF65688D4294F901409442F1D12A
:103D1000586830BD002030BD382104F06DBB10B5AF
:103D200004000BD0606B18B1216889694969884724
:103D30002046BDE810403821FFF706BE10BD38B55B
:103D400004460D0018BF002C00D14EE0382104F0CD
:103D500053FBA86900698047606310B9DFF88802E7
:103D600032BD2560002032BD70B504001CBF25683F
:103D7000002DDFF878021DD02E7CB60702D46E68C5
:103D8000964217D162602372012B1EBF95F9012064
:103D9000032A052A06D1AB696268606B9B68BDE89F
:103DA0007040184733B9AB696268606BDB68BDE887
:103DB0007040184770BD38B504001CBF206800284B
:103DC00013D091B1112A01D3894832BD037CDB079E
:103DD00008D515462A4604F12000FFF739FF256370
:103DE000002032BDC568AA42F4D2804832BD002806
:103DF0001CBF0168002900D15AE00021C1610020E8
:103E00007047F8B5040008461CBF2568002D114610
:103E10002DD0069A5AB30026166095F901706E6986
:103E2000012F0CD1B14201D07248F2BD116002469F
:103E300094F90810606BAC696468A047F2BD062F66
:103E400007D111600246606B01B0BDE8F04009F097
:103E500028BB0EB96848F2BD98420AD1E069002833
:103E600002BFB1FBF6F006FB1010002801D05F483E
:103E7000F2BD5F48F2BD00281CBF0168002900D0D8
:103E800002B915E00023136091F90110032918BF4E
:103E9000052903D0062918BF072901D10020704742
:103EA000012903D1C06910B152487047504870478A
:103EB0004E487047F0B583B005461E46FFF77BFFBE
:103EC000C8B92846FFF793FFA8B9099F0A9C089A2A
:103ED00000943B4631462846FFF793FF58B92068C7
:103EE000391801AA2846FFF7C6FF20B920680199B2
:103EF000081820600020FEBD2DE9F04387B004685B
:103F000094F901900E9D0F9EDDF84080119FDDF821
:103F100048C0DDF84CE0149CB9F1060F10D1CCF884
:103F20000080CDF818E0059401930497039602955C
:103F300000920B46406B4246012109F0ACFB11E0B8
:103F4000B9F1080F0DD1CCF8008005940093CDF89D
:103F500010E003970296019500F053F809F093FDE5
:103F600000E0234807B0BDE8F0832DE9F04786B0B4
:103F7000046894F901A00E9E0F9FDDF84080DDF8E3
:103F800044C0DDF848E0139C149DDFF87090BAF14E
:103F9000060F0ED1CEF80080CDF814C0049703951B
:103FA0000294009300F02CF809F092FB10F1120F2C
:103FB00010E0BAF1080F10D1CEF8008005950494F6
:103FC0000093CDF80CC0029700F01AF809F071FDCB
:103FD00010F10F0F02D1484600E0054806B0BDE8D9
:103FE000F0870000A4AD0308809EFFFF009FFFFF45
:103FF000809FFFFF809DFFFF809CFFFF009DFFFFD4
:10400000019613460A46406B41467047DFF8FC14A0
:104010000860704710B582B0046804980090606929
:104020002469A04713BDF0B5ADF5017D04001CBFA8
:10403000206800280D4616461F4617D00069A8B113
:1040400000F0F4F812DB869A87AB4FF4007101A8F8
:1040500009F05EFDB0F5FF7F05D801AA0A211154D1
:1040600010440021417001A800F028F80DF5017DF1
:10407000F0BDF0B50446ADF5037D206800281CBFF7
:10408000006900280D4616461F4614D000F0CEF8F1
:1040900011DB899810F5D24F0DD04142019100906B
:1040A0004FF40071889B0FF2684202A809F04EFDA0
:1040B00002A800F003F80DF5037DF0BD00903B462B
:1040C000324629462046A5E72DE9F04F0446ADF5D6
:1040D000077D2068002500281CBF0069002888464D
:1040E00091469B465ED0DFF824040068404559DBCA
:1040F000929F0FF238420FF2504A00974FF400712E
:10410000909B06A809F022FD00F055F8112101A8A6
:1041100004F072F9002604E001A906F00F02761CF3
:104120008854BE4238BFB6F5805F27D216F00F0F15
:1041300013D15EB106A801AB524600F037F800F08B
:104140003AF8112101A804F057F9002506A83346D2
:104150000FF2FC3200F02AF8451991980FF2F8326C
:10416000835D06A800F022F845199198805DA0F1C2
:1041700020015F2934BF40B22E20CDE72FB911E0D6
:1041800076A209F0E3FC4519761C06A8401916F042
:104190000F0FC5F50071F3D101AB524609F0D6FC03
:1041A00000F009F80DF5077DBDE8F08FC5F5007149
:1041B000401909F0CBBC06A800905B464A46414630
:1041C000204627E72DE9F0430446ADF5037D20683E
:1041D00000281CBF006900280D46904699461CD057
:1041E00000F024F819DB8A9E0FF27432334600F097
:1041F00018F88B9F019700F01DF800F022F8334665
:104200000FF2643200F00DF807F10C0001904B46FC
:1042100002A800F02AF900F014F80DF5037DBDE8BE
:10422000F0834FF4007102A809F090BCB748006811
:10423000A842704702A800904B46424629462046B5
:1042400070472DE9FD4FADF5027D0068012600287D
:104250001FBF006900288F9D002D88464FF0000980
:104260006BD0AA480068404567DB6868441E00E0E0
:10427000641E24B1A86850F824000028F8D01F203C
:10428000A96851F82410C140C90701D4401EF7D5D0
:1042900000EB4410401C00904FF400718E9B0FF215
:1042A000D02201A809F052FC00F05AF8641C4F46D5
:1042B00035E01EB100F045F800282FD04FF0030A7A
:1042C0004FEACA0B2EB100F03CF820FA0BF00006C2
:1042D00021D0F81007EB107000260011B7EB00108A
:1042E00006D1012F04DB00F032F800F039F8B146B6
:1042F000A8680FF2642200EB8400C9F5007150F841
:10430000040C20FA0BF000F0FF0301A8484409F068
:104310001DFC81447F1CBAF1010AD1D5641EC8D1AD
:104320003EB101A876A2C9F50071484409F00EFC1F
:10433000814400F00CF800F013F80DF5057DBDE8A0
:10434000F08FA86800EB840050F8040C704701A8B7
:104350006CA2C9F50071484409F0F8BB2020200088
:1043600001A80090849B839A8298414652E62DE9E9
:10437000F04F8FB00446884691469B46242106A8FC
:1043800004F03AF8199806A903F0F8FF28B10FF2E3
:104390000020009000F039F82BE000250FF20C26E9
:1043A0000FF2002A0C2106A86943471897F900006C
:1043B000F8B17868189B00905246102102A809F0C5
:1043C000C5FB00208DF817003856012804D100F0F5
:1043D00013F8FFF736FF09E0022804D100F00CF8CB
:1043E000FFF7F0FE02E0009600F00FF86D1C032DC1
:1043F000D8D30FB0BDE8F08FB86801905B4602A833
:1044000000904A464146204670475B464A46414630
:104410002046FFE52DE9F043ADF5017D0D46889975
:104420000446904699460E4617E00A2814D1701AA1
:10443000471CB7F5007F28BF40F2FF173A4601A896
:10444000FFF706FC01A90020C8554B4601A800F063
:104450000CF8FFF7DFFD711C761C96F900000200D6
:10446000E3D10DF5017DBDE8F08300904246294679
:10447000204670472DE9F0470446ADF5C16D206830
:10448000002600281CBF006900280D46904699466A
:1044900031D0DDF82C7677B3FFF7C8FE2BDBDDF8E3
:1044A00028A6761C009653460FF214124FF40071A2
:1044B0000DF5816009F04AFB0DF58160FFF7BBFE49
:1044C000FFF7A8FD3B4610A240F2FF3102A802F020
:1044D000CFFDFFF7AFFEFFF79DFF07F1BC00019096
:1044E0004B460FF2E800FFF7C0FFFFF740FFD7F899
:1044F0003071002FD5D10DF5C16DBDE8F0870000FA
:10450000203030000A00000000000000600D002094
:10451000257328292072657475726E656420256480
:1045200020282D307825303478290A0064756D7084
:10453000696E6720272573272028257520627974E6
:104540006573290A00000000202025730A0000007E
:10455000253034783A2000002025303278000000E1
:1045600025732858290000002573285929000000C8
:1045700076616C7565206F662027257327202825B6
:10458000642062697473292069733A0A000000008C
:10459000696E76616C696420504B20636F6E746540
:1045A00078740A00257325730000000073686F7526
:1045B0006C64206E6F742068617070656E0A000014
:1045C0002573202325643A0A000000006372742DCD
:1045D0003E00000070B50F4C2068C0B90FF2940582
:1045E000261D0AE000F018F800281FBF90F9080007
:1045F0002A28286846F8040B2D1D286818B104F1F4
:104600003C018E42EED30020306001202060201D4E
:1046100070BD0000CC0C00200FF2E42100E020313E
:104620000A681AB18242FAD10846704700207047E2
:1046300080B5FFF7F1FF10B90FF2300002BD4068FE
:1046400002BD90F90A00401E022807D9C01E07D0FB
:10465000C01E03D0801E012804D905E00120704748
:10466000042070470220704700207047756E6B6E03
:104670006F776E002CC0000030C000009F0000006B
:10468000ADC000009FC0000024C0000028C0000092
:104690006B0000000AC0000014C0000039000000D8
:1046A000AFC00000A3C0000087C000008BC00000A6
:1046B0007DC0000073C0000077C00000C40000008F
:1046C000880000002BC000002FC000009E000000EA
:1046D000ACC000009EC0000023C0000027C0000046
:1046E0006700000009C0000013C000003300000094
:1046F000AEC00000A2C0000086C000008AC000005A
:104700007CC0000072C0000076C00000BE00000047
:104710004500000008C0000012C0000016000000A4
:10472000AB000000A7C0000038C00000B3000000CC
:1047300036C000009100000091C000009BC0000046
:1047400097C00000ABC00000AA000000A6C0000097
:1047500037C00000B200000035C00000900000002B
:1047600090C0000096C000009AC00000AAC00000DF
:1047700034C000008F000000FFC000009D0000005A
:104780009DC000003D0000003500000032C0000068
:104790002AC000000FC000002EC0000026C000008C
:1047A00005C00000A1C000007BC00000C0000000E8
:1047B000840000008DC0000079C0000089C00000A6
:1047C00075C000009C0000009CC000003C00000080
:1047D0002F00000031C0000029C000000EC0000002
:1047E0002DC0000025C0000004C00000A0C00000D3
:1047F0007AC00000BA000000410000008CC0000038
:1048000078C0000088C0000074C000000A000000EA
:104810000DC0000003C00000AD000000B7000000A4
:104820009500000093C0000099C00000AC0000009B
:10483000B60000009400000092C0000098C0000084
:1048400093000000A9000000A5C00000AF00000018
:104850008D0000008FC0000095C00000A9C00000BE
:10486000A8000000A4C00000AE0000008C00000002
:104870008EC0000094C00000A8C000008B000000A3
:1048800007C0000011C0000033C000008E0000000F
:1048900005000000040000000CC0000002C0000081
:1048A000920000008A0000001500000009000000CE
:1048B00006C0000010C000003BC000003AC000006D
:1048C00039C00000B5000000B40000002D00000059
:1048D0003B00000002000000010000000BC00000CF
:1048E00001C00000B9000000B80000002E00000068
:1048F000B1000000B00000002C000000000000002B
:104900002BC0000014B303080E06040003000000CF
:10491000030000000300000003000000000000008E
:104920002CC000003CB30308100704000300000083
:10493000030000000300000003000000000000006E
:10494000ADC0000064B303082D060400030000009E
:10495000030000000300000003000000000000004E
:10496000AFC0000088B303082D0604000300000058
:10497000030000000300000003000000020000002C
:10498000ACC00000ACB303082B0604000300000019
:10499000030000000300000003000000000000000E
:1049A000AEC00000D0B303082B06040003000000D3
:1049B00003000000030000000300000002000000EC
:1049C0002FC00000F4B303080E060300030000002C
:1049D00003000000030000000300000000000000CE
:1049E00030C000001CB403081007030003000000DF
:1049F00003000000030000000300000000000000AE
:104A00009D00000044B403081007010003000000EB
:104A1000030000000300000003000000000000008D
:104A20009C00000064B403080E06010003000000AF
:104A3000030000000300000003000000000000006D
:104A40009DC0000084B403082D060100030000008F
:104A5000030000000300000003000000000000004D
:104A6000A1C00000A0B403082D060100030000004F
:104A7000030000000300000003000000020000002B
:104A80009CC00000BCB403082B060100030000001A
:104A9000030000000300000003000000000000000D
:104AA000A0C00000D8B403082B06010003000000DA
:104AB00003000000030000000300000002000000EB
:104AC00000000000F4B40308000000000000000033
:104AD00000000000000000000000000000000000D6
:104AE0006C2103F089BC00281CBF6C21FEF72CBF91
:104AF00070476C22FFF7BCB8002202604260B9B96F
:104B0000DFF840298260DFF84029C260DFF83C29E5
:104B10000261DFF83C294261DFF838298261DFF861
:104B20003829C261DFF834290262DFF8342916E03F
:104B3000DFF830298260DFF83029C260DFF82C29E5
:104B40000261DFF82C294261DFF828298261DFF851
:104B50002829C261DFF824290262DFF82429426291
:104B6000816670472DE9F14FCEB0002206A84E9B1A
:104B700003EB82039B6840F82230521C082AF6D3CC
:104B8000002201EB82035D781C782D0445EA046461
:104B90009D78DB7844EA052423430EAC44F82230A8
:104BA000521C102AEDD300210469D0F81C90D0F8D3
:104BB0001480D0F818E00FF6CC03D0F808C04FEA04
:104BC000F42A8AEAB41585EA7465A9448EEA0805D0
:104BD00025400EAA03EB810385EA0E0502EB810254
:104BE000A9441D681668D0F80CA04D4406EB050BCF
:104BF000069ED0F8049035464FEA753585EAB6062C
:104C0000069D86EAB557069E49EA060609EA0505A5
:104C100006EA0C0635433D44DA44AB444FEAFA2534
:104C200085EABA1585EA7A65AE4488EA040505EA9C
:104C30000A0585EA0805C0F80CA0C0F81CB0AE440F
:104C40005D68069F069EAE445568AE444FEA7B35CC
:104C500047EA0B0785EABB0506EA0B0607EA0907E0
:104C600085EABB553E437519F444AE444FEAFC2532
:104C700085EABC1585EA7C65A84484EA0A0505EA4C
:104C80000C056540C0F808C0C0F818E0A8449D684D
:104C9000A8449568A8444FEA7E3585EABE0585EAB2
:104CA000BE5500954BEA0E06069F0BEA0E053E40E8
:104CB0002E43009D7519C144A8444FEAF92585EAA1
:104CC000B91585EA79652C198AEA0C0505EA090502
:104CD00085EA0A05C0F80490C0F814802C19DD6834
:104CE0002C19D5682D194FEA78344EEA080784EA62
:104CF000B8040EEA080607EA0B0784EAB8543E43F4
:104D00003619069C2F19069774190461069D2E46C4
:104D10004FEAF62686EAB51787EA7565AA44069D26
:104D20008CEA0906354085EA0C05AA441D69AA44A7
:104D3000156955444FEA743A8AEAB40686EAB45AC9
:104D400048EA040708EA040607EA0E073E43564409
:104D500005EB0B0A06EB050B4FEAFA2585EABA15B7
:104D600085EA7A65C0F81CA0C0F80CB0AC44069D7A
:104D700089EA050505EA0A0585EA0905AC445D6985
:104D8000AC44556965444FEA7B3C8CEABB0686EA35
:104D9000BB5C44EA0B0704EA0B0607EA08073E433C
:104DA000664405EB0E0C06EB050E4FEAFC2585EA82
:104DB000BC1585EA7C65C0F818C0C0F808E0A944B5
:104DC000069D85EA0A0606EA0C067540A9449D6917
:104DD000A9449569A9444FEA7E354BEA0E0785EA56
:104DE000BE050BEA0E06274085EABE553E437519FF
:104DF000C844A944C0F81480C0F804904FEAF826CB
:104E0000069DDB69D26986EAB81686EA7866751966
:104E10008AEA0C0606EA080686EA0A0A55442B4482
:104E2000D3184FEA793282EAB9024EEA090682EAD9
:104E3000B9520EEA090506EA0B0646EA050991444D
:104E40001A190261083109EB030210290692FFF4D6
:104E5000ABAE10210591059A059C0EA901EB8201CC
:104E6000049140398A6BD1F804A013464FEAF3430A
:104E700083EA72428B6B82EA93224B6A9A184FEA5A
:104E8000BA4383EAFA1383EADA039A180B689A188A
:104E90000EAB039243F82420059B0FF2E852D0F8A2
:104EA00018C0D0F808B002EB830202920269C3690D
:104EB0004569069E069F4FEAF22484EAB21484EA0A
:104EC0007264E3188CEA0504144084EA0C04E318C5
:104ED000029C2468E318039C04EB0309069C4368C6
:104EE000A6464FEA7E3E8EEAB40484EAB6541F43D7
:104EF0001E4007EA0B0747EA060EA644C4684C4466
:104F0000F144C460C0F81C90CF6BD1F808803E46D5
:104F10004FEAF64686EA7747CE6B87EA962E8E6A88
:104F2000B6444FEAB84686EAF81686EAD8067644CA
:104F3000B244049EC6F804A04FEAF42E8EEAB416DA
:104F400086EA7466B44485EA020626406E40B4449C
:104F50004FEA793E029E069F766847EA09071F409E
:104F6000B4448EEAB90686EAB95E069E06EA0906E8
:104F70003E43D4447644E344B444C0F808B0C0F897
:104F800018C0D1F80CE0039E0096039F4FEAF74645
:104F9000009F86EA7746039F86EA9726CF6ABE1966
:104FA0004FEABE4787EAFE1787EADE07BE19B0441C
:104FB000049E361DC6F804804FEAFB2686EABB161F
:104FC00086EA7B66751982EA040606EA0B065640F5
:104FD0007519029EB66875194FEA7C3686EABC06DA
:104FE00086EABC560196454409EA0C06009649EA51
:104FF0000C06069F3E40009F3E43019FF6194FEA74
:10500000FA47EB1887EA7A474360751987EA9A2AC4
:1050100045610F6B0E69BA444FEAB64787EAF61747
:1050200087EAD607BA44049F3F1DF244C7F808A098
:105030004FEAF32E8EEAB31787EA73673A444FEAD2
:10504000753E84EA0B071F4067403A44029FFF68A1
:105050003A448EEAB50787EAB55700974CEA050E41
:105060000CEA05070EEA090E4EEA070E009FBE4441
:10507000069F5244D7190697724400F0FCF802616B
:105080004F6BD1F814E0B8444FEABE4787EAFE17E9
:1050900087EADE07B844B044049E361DC6F80C808B
:1050A0000094069C27464FEAF72686EAB41484EA61
:1050B0007766009C34193E468BEA03073E4086EA39
:1050C0000B063419029E3669341908EB04064FEAC0
:1050D000723484EAB20484EAB254009405EA020706
:1050E00045EA020404EA0C043C43009FE71906EB7E
:1050F000090407EB06094FEAFA4787EA7A4787EA85
:105100009A2AC461C0F80C908F6B8E69BA444FEA3A
:10511000B64787EAF61787EAD607BA44049F3F1DC9
:10512000F244C7F810A04FEAF42E8EEAB41787EACB
:105130007467BB44069F5F4027404FEA793E5F405B
:10514000BB44029F7F69BB448EEAB90787EAB9571F
:10515000009742EA090E02EA09070EEA050E4EEA36
:10516000070E009FD3447744DC44BB4400F083F82F
:10517000C0F818C0C0F808B0CF6BD1F81CE0B84434
:105180004FEABE4787EAFE1787EADE07B844B04415
:10519000049E361DC6F814804FEAFC2686EABC162B
:1051A00086EA7C66F318069E86EA040707EA0C077F
:1051B0007E40F318029EB669F31843444FEA7B38E9
:1051C00088EABB0686EABB5849EA0B0709EA0B06E0
:1051D00017403E4346445F194761F51845604FEA62
:1051E000FA43096A039E83EA7A4383EA9A233344A3
:1051F0004FEAB14A8AEAF11686EAD101C918049B3E
:105200001B1D714499614FEAF72A069B8AEAB7167B
:1052100086EA7766334484EA0C063E407440E3181D
:10522000029CE469E318CB184FEA753181EAB501B5
:1052300081EAB5510BEA05044BEA050505EA0905C3
:105240002C43641899180161E118069105990831F9
:1052500040290591FFF4FFAD00214E9A50F82140FE
:1052600002EB8102491C9368E31808299360F4D388
:105270004FB0BDE8F08F4FEAF84787EA784787EAF2
:10528000982870472DE9F041160004460D462ED0AF
:10529000206800F03F073018B042C7F14008206096
:1052A00002D26068401C6060B7B1464514D3E01973
:1052B00042462830FEF7CCFC04F128012046FFF7D7
:1052C00051FC4544A6EB0806002705E02946204688
:1052D000FFF748FC4035403E402EF7D23EB1324603
:1052E0002946E019BDE8F0412830FEF7B1BCBDE821
:1052F000F08130B504460D4683B061682068C9006E
:1053000041EA50718DF80310C0000B0C8DF801308C
:105310000A0E0B0A010E8DF804108DF80700010C1F
:105320008DF805108DF80020010A8DF802308DF8F7
:10533000061020780FF24C2100F03F00382834BFCF
:10534000C0F13802C0F178022046FFF79BFF082227
:1053500069462046FFF796FFA068000E2870A068F7
:10536000000C6870A068000AA870A068E870E06887
:10537000000E2871E068000C6871E068000AA871EE
:10538000E068E8712069000E28722069000C6872DC
:105390002069000AA8722069E8726069000E28730B
:1053A0006069000C68736069000AA8736069E8733B
:1053B000A069000E2874A069000C6874A069000A36
:1053C000A874A069E874E069000E2875E069000C13
:1053D0006875E069000AA875E069E875206A000E42
:1053E0002876206A000C6876206A000AA876206A6F
:1053F000E876A06E50B9606A000E2877606A000CEB
:105400006877606A000AA877606AE87737BDF0B508
:105410009BB004460D4616461F466846FFF760FBE4
:1054200039466846FFF768FB2A4621466846FFF77B
:1054300029FF31466846FFF75CFF6846FFF753FBDC
:105440001BB0F0BD67E6096A85AE67BB72F36E3CC0
:105450003AF54FA57F520E518C68059BABD9831F3F
:1054600019CDE05BD89E05C107D57C3617DD7030BD
:1054700039590EF7310BC0FF11155868A78FF96421
:10548000A44FFABE982F8A4291443771CFFBC0B522
:10549000A5DBB5E95BC25639F111F159A4823F92FF
:1054A000D55E1CAB98AA07D8015B8312BE85312458
:1054B000C37D0C55745DBE72FEB1DE80A706DC9B19
:1054C00074F19BC1C1699BE48647BEEFC69DC10FC5
:1054D000CCA10C246F2CE92DAA84744ADCA9B05C01
:1054E000DA88F97652513E986DC631A8C82703B0C4
:1054F000C77F59BFF30BE0C64791A7D55163CA06D2
:1055000067292914850AB72738211B2EFC6D2C4DDD
:10551000130D385354730A65BB0A6A762EC9C281CB
:10552000852C7292A1E8BFA24B661AA8708B4BC261
:10553000A3516CC719E892D1240699D685350EF48B
:1055400070A06A1016C1A419086C371E4C77482742
:10555000B5BCB034B30C1C394AAAD84E4FCA9C5BB8
:10556000F36F2E68EE828F746F63A5781478C88409
:105570000802C78CFAFFBE90EB6C50A4F7A3F9BEEB
:10558000F27871C6800000000000000000000000FA
:10559000000000000000000000000000000000000B
:1055A00000000000000000000000000000000000FB
:1055B00000000000000000000000000000000000EB
:1055C0000000000000000000D82102F015BF0028F4
:1055D0001CBFD821FEF7B8B97047D822FEF748BBE8
:1055E0000022C0E90022C0E9022271BBDFF8A02B33
:1055F000DFF8A03BC0E90423DFF89C2BDFF89C3BDD
:10560000C0E90623DFF8982BDFF8983BC0E90823B0
:10561000DFF8942BDFF8943BC0E90A23DFF8902BE6
:10562000DFF8903BC0E90C23DFF88C2BDFF88C3BD4
:10563000C0E90E23DFF8882BDFF8883BC0E9102390
:10564000DFF8842BDFF8843B2DE0DFF8842BDFF8D4
:10565000843BC0E90423DFF8802BDFF8803BC0E9FE
:105660000623DFF87C2BDFF87C3BC0E90823DFF85A
:10567000782BDFF8783BC0E90A23DFF8742BDFF8DA
:10568000743BC0E90C23DFF8702BDFF8703BC0E9F6
:105690000E23DFF86C2BDFF86C3BC0E91023DFF83A
:1056A000682BDFF8683BC0E91223C0F8D0107047C0
:1056B0002DE9F14FADF53E7D0A464FF0000C02EBAF
:1056C000CC0358781C780104987841EA046141EAD7
:1056D0000021D878014318790406587944EA004437
:1056E000987944EA0024D8791EAB03EBCC0320431D
:1056F000C3E900010CF1010CBCF1100FDFDBBCF1C0
:10570000500F4BDA1EA800EBCC00A0F1800EDEE9B2
:105710001C894FEA48314FEAD84041EAD94540EA6E
:1057200049344FEAC90141EA58714FEAC80040EADA
:1057300059706940604081EA99114FEA981444EA2F
:105740008964DEE91289DEE90223604010EB080576
:1057500041EB0909924658084FEA3A0A140A40EA0E
:10576000C27644EA03641106D20941EA13218AEAA7
:10577000040042EA43627140504081EAD311DEE9FD
:105780000023281849EB010180181EAA02EBCC0265
:105790005941C2E900010CF1010CB0E7DDF8F8C293
:1057A000BE98D0E90401CDE91C01BE98D0E90601FC
:1057B000CDE91A01BE98D0E90801CDE91801BE98DB
:1057C000D0E90A01CDE91601DCE90C45CDE9144523
:1057D000CDE90C45DDF8F8C2DCE90E45CDE912450E
:1057E000CDE90A45DDF8F8C2DCE91045CDE9104500
:1057F000CDE90845DDF8F8C2DCE91245DDE91C23F6
:10580000DDE91A89DDE918ABCDE90E45CDE906459C
:105810004FF0000C00F03AF900F043F904EBCC0E25
